:1000000000800020BD010000C1B8000079B80000E8
:1000100079B8000079B8000079B8000079B800001C
:1000200079B8000079B8000079B80000C1B80000C4
:10003000C1B8000079B8000065AD000069AD0000EE
:10004000C1B80000C1B80000C1B80000C1B80000CC
:10005000C1B80000C1B80000C1B80000C1B80000BC
:10006000C1B80000C1B80000C1B80000C1B80000AC
:10007000C1B80000C1B80000C1B80000C1B800009C
:10008000C1B80000C1B80000C1B80000C1B800008C
:10009000C9950000C1B80000C1B80000C1B8000097
:1000A000C1B80000C1B80000C1B80000C1B800006C
:1000B000C1B80000EDAB0000F9AB0000FDAB0000E3
:1000C00009AC00000DAC000011AC0000C1B800008C
:1000D000C1B80000C1B80000C1B80000C1B800003C
:1000E000C1B80000C1B80000C1B80000C1B800002C
:1000F000C1B80000C1B80000C1B80000EDC70000E1
:10010000C1B8000001CF0000C1B80000C1B80000B4
:10011000C1B80000C1B80000C1B80000C1B80000FB
:10012000C1B80000C1B80000C1B80000C1B80000EB
:10013000C1B80000C1B80000C1B80000C1B80000DB
:10014000C1B80000C1B80000C1B80000C1B80000CB
:10015000C1B80000C1B80000C1B80000C1B80000BB
:10016000C1B80000F9D10000C1B80000C1B800005A
:10017000C1B80000C1B80000C1B80000C1B800009B
:10018000C1B80000C1B80000C1B80000C1B800008B
:10019000C1B80000C1B80000C1B80000C1B800007B
:1001A000C1B80000C1B80000C1B80000C1B800006B
:1001B000C1B80000C1B80000C1B80000564B4CF2F5
:1001C000205210B51A804DF628121A8000BF00BFC9
:1001D0000BF07AFB514B4FF010621A60504A9A6054
:1001E000504ADA60504A136813F4807304D14F49BF
:1001F0000B604FF4A85313604D4B1A78110703D5C9
:100200001A7842F008021A704A4B4B492A221A7097
:100210004A4A4B4B8B4204D252F8040F43F8040B6A
:10022000F8E7484B484900228B4202D243F8042B9E
:10023000FAE74649464A002352F8230041F82300D2
:1002400001336F2BF8D1434B434A802103F8011B44
:100250009342FBD1414B3D4A1A60414B8A221A70AE
:10026000A3F5805324225A70A0221A709A7992071B
:10027000FCD59A79D406FCD43A4A937903F00C035E
:10028000082B384BF9D103221A7140225A719A79FE
:100290009006FCD5334A9179324B4906FBD5324A58
:1002A000324911600221516020221A709A7902F0BD
:1002B0000C020C2AFAD12E4B2E4A1A602E4B2F4AD2
:1002C0001A6000225A60072243F8042C2C4AC3F813
:1002D0000C2D62B60BF04EFC144B1B68DA0705D5EB
:1002E00028480BF033FC284B284A1A60284B1B780F
:1002F0005B0609D5244C254B22689A4204D121483B
:100300000BF024FC002323600BF0E4FA10F076FAE3
:100310000BF0D6F9FEE700BF0E2005403080044008
:10032000823F04000100002B10D0034014D0034092
:1003300002D0074000E007403094FF1F94660100A0
:100340002087FF1F3094FF1FC8C1FF1F0082FF1FBF
:100350000000000000E400E05FE400E008ED00E0E1
:100360000050064000400640448004400000030165
:1003700004800440C010050014E000E0FF76010096
:10038000000020208CE899631CE00340A5C3945A28
:1003900000F00740FFFFFFFFFFFFFFFFFFFFFFFF32
:1003A000FFFFFFFFFFFFFFFFFFFFFFFFFFFFFFFF5D
:1003B000FFFFFFFFFFFFFFFFFFFFFFFFFFFFFFFF4D
:1003C000FFFFFFFFFFFFFFFFFFFFFFFFFFFFFFFF3D
:1003D000FFFFFFFFFFFFFFFFFFFFFFFFFFFFFFFF2D
:1003E000FFFFFFFFFFFFFFFFFFFFFFFFFFFFFFFF1D
:1003F000FFFFFFFFFFFFFFFFFFFFFFFFFFFFFFFF0D
:10040000FFFFFFFFFFFFFFFFFFFFFFFFDEF9FFFF23
:1004100010B5054C237833B9044B13B10448AFF33E
:1004200000800123237010BD3094FF1F00000000E6
:1004300090660100084B10B51BB108490848AFF39E
:1004400000800848036803B910BD074B002BFBD0A0
:10045000BDE81040184700BF000000003494FF1FA3
:10046000906601003094FF1F00000000F0B400F11E
:1004700014060F4F00243146031F00F12C0243F8ED
:10048000044FB34241F8047F4FF0000542F8044F97
:10049000F5D1084B084985640022C56405654565AA
:1004A000456683650366C16580F88420F0BC7047AB
:1004B0000000A040000048430000C8C200230360C1
:1004C00043608360C3600361436183640365436584
:1004D000704700BF2DE9F04190F8844084B00023BC
:1004E00064008DF80530E4B2012380468DF80440A5
:1004F0008DF80630032720460CF032FC02210DF166
:1005000005000CF037FC8DF8044002F091FD30B38B
:100510000921C9480DF0CAFB002310222146C74813
:100520000AF0AEFD0121C6480DF0C0FB00231022E9
:100530009DF80510C1480AF0A3FD0121C0480DF047
:10054000B5FB002310229DF80610BC480AF098FD68
:100550000121BB480DF0AAFBB8480AF07DFD02203E
:100560008DF804400BF03EFD02F062FD002840F0E3
:10057000778102AE00240CF037FC002800F02681C1
:10058000042C40F0158101E00CF042FC0CF02CFC36
:100590000028F9D102F04CFD10B1A8480AF05CFD2A
:1005A00098F884406400E4B2202204238DF80440CB
:1005B0008DF805208DF80630032720460CF0D0FB7F
:1005C00002210DF105000CF0D5FB8DF8044002F07E
:1005D0002FFD30B3092198480DF068FB002310224D
:1005E000214696480AF04CFD012195480DF05EFB2E
:1005F000002310229DF8051090480AF041FD0121CA
:100600008F480DF053FB002310229DF806108B48F5
:100610000AF036FD01218A480DF048FB87480AF0B0
:100620001BFD02208DF804400BF0DCFC02F000FD05
:10063000002840F00B8102AE00240CF0D5FB00280E
:1006400000F0A980072C40F0988001E00CF0E0FB5E
:100650000CF0CAFB0028F9D102F0EAFC10B177488F
:100660000AF0FAFC98F884409DF80B209DF80C30B5
:100670009DF80D00C8F870206400E4B29DF80E10DB
:10068000C8F87430332201238DF80440C8F878008C
:10069000C8F87C108DF805208DF806300327204619
:1006A0000CF05EFB02210DF105000CF063FB8DF8F0
:1006B000044002F0BDFC30B309215F480DF0F6FAAA
:1006C0000023102221465D480AF0DAFC01215C4833
:1006D0000DF0ECFA002310229DF8051057480AF09F
:1006E000CFFC012156480DF0E1FA002310229DF8BD
:1006F000061052480AF0C4FC012151480DF0D6FA08
:100700004E480AF0A9FC02208DF804400BF06AFC68
:1007100002F08EFC002840F09E8002AE00240CF017
:1007200063FBF8B1042C0FD101E00CF071FB0CF06D
:100730005BFB0028F9D102F07BFC10B13F480AF0C6
:100740008BFC04B0BDE8F0810CF062FB054606F8B6
:10075000010B02F06DFC00285AD101340CF044FB6F
:100760000028DFD1042CE2D002F062FC00285ED128
:10077000013FE6D09DF8044091E70CF049FB0546A7
:1007800006F8010B02F054FC60BB01340CF02CFBAA
:1007900000287FF457AF072C3FF45AAF02F048FC13
:1007A00000284FD1013F3FF45DAF9DF8044004E7BE
:1007B0000CF02EFB054606F8010B02F039FCE0B9FF
:1007C00001340CF011FB00287FF4DAAE042C3FF466
:1007D000DDAE02F02DFC30BB013F3FF4E1AE9DF8F1
:1007E000044088E6E9B20023102214480AF048FCCD
:1007F000012113480DF05AFAC7E7E9B2002310228D
:100800000E480AF03DFC01210D480DF04FFAD7E7E4
:10081000E9B20023102209480AF032FC01210848FD
:100820000DF044FA99E705480AF016FCD4E70348AE
:100830000AF012FC9CE700BF80460100CC89FF1F34
:10084000185C010009480AF007FCABE707210848DB
:100850000DF02CFAEFE6072105480DF027FA5CE7CA
:10086000072103480DF022FA83E600BFCC89FF1F61
:100870008C46010090F87400704700BF90F870003B
:10088000704700BF90F87800704700BF90F87C0078
:10089000704700BF2DE9F04390F8848085B04FEA9F
:1008A00048085FFA88F8322200238DF804808DF81A
:1008B00005208DF8063003250DF1060748F00109E3
:1008C00048460CF04DFA01AE0DF1050002210CF086
:1008D00051FA8DF804904A463346002050400824CF
:1008E00010F0800F4FEA400018BF80F00700013C75
:1008F000C0B2F5D1BB4202D013F8012FEEE70CF0E5
:100900002FFA02F095FB00284AD102208DF80480CE
:100910000BF068FB02F08CFB002840F081800DF1A9
:10092000080800240CF060FA08B3042C12D101E08E
:100930000CF06EFA0CF058FA0028F9D102F078FBAE
:1009400010B13A480AF088FB02200BF04BFB05B0CF
:10095000BDE8F0830CF05CFA08F8010B064602F0E3
:1009600067FB70B901340CF03FFA0028DDD1042C8C
:10097000E0D002F05DFB78B9013DE5D09DF8048040
:100980009CE7F1B20023102228480AF079FB0121EC
:1009900027480DF08BF9E5E724480AF05DFBEBE70B
:1009A000092124480DF082F92346102249461F48A8
:1009B0000AF066FB01211E480DF078F9234610224B
:1009C0009DF8051019480AF05BFB012118480DF04D
:1009D0006DF9102223469DF8061014480AF050FBCA
:1009E000012113480DF062F921460DF1070216F8B6
:1009F000014B6140C9B2082311F0800F4FEA410159
:100A000018BF81F00701013BC9B2F5D1B242EED166
:100A1000102206480AF034FB04480AF01DFB74E774
:100A2000072105480DF042F979E700BFCC89FF1F87
:100A3000185C0100804601008C4601002DE9F04F52
:100A4000074691B097F8843002205B008DF808309B
:100A50000BF0C8FA97F8843038465B008DF8083000
:100A6000FFF738FDB86FFC6F7B6F3A6F97F8841013
:100A70008DE81100C94802F0E1FB30223D238DF8DA
:100A800009208DF80A3003260DF10A059DF808901B
:100A900049F0010840460CF063F90DF1090002210C
:100AA0000CF068F98DF80880424602AB00205040F7
:100AB000082410F0800F4FEA400018BF80F00700B4
:100AC000013CC0B2F5D1AB4202D013F8012FEEE7E2
:100AD0000CF046F902F0ACFA002840F07D820220CA
:100AE0008DF808900BF07EFA02F0A2FA002840F090
:100AF000B9820DF10C0AD14600240CF075F90028DA
:100B000043D0032C34D101E00CF082F90CF06CF9E5
:100B10000028F9D102F08CFA10B1A1480AF09CFA31
:100B2000312303268DF809308DF80A609DF808906E
:100B300049F0010840460CF013F90DF109000221BB
:100B40000CF018F98DF80880424602AB00205040A6
:100B5000082410F0800F4FEA400018BF80F0070013
:100B6000013CC0B2F5D19D4228D013F8012FEEE729
:100B70000CF04EF909F8010B804602F059FA68B9F9
:100B800001340CF031F90028BBD1032CBED002F0A7
:100B90004FFA78B9013E7FF479AFC1E75FFA88F187
:100BA000002310227E480AF06BFA01217D480DF0E7
:100BB0007DF8E5E77A480AF04FFAEBE70CF0D0F859
:100BC00002F036FA002840F0C68102208DF8089025
:100BD0000BF008FA02F02CFA002840F03E820DF1EA
:100BE0000C0900240CF000F9002844D0032C35D166
:100BF00001E00CF00DF90CF0F7F80028F9D102F043
:100C000017FA10B166480AF027FA342201238DF84A
:100C100009208DF80A3003269DF8089049F0010854
:100C200040460CF09DF80DF1090002210CF0A2F8ED
:100C30008DF80880424602AB00205040082410F096
:100C4000800F4FEA400018BF80F00700013CC0B29F
:100C5000F5D1AB4228D013F8012FEEE70CF0D8F80D
:100C600009F8010B804602F0E3F968B901340CF091
:100C7000BBF80028BAD1032CBDD002F0D9F978B95D
:100C8000013E7FF453AFC0E75FFA88F100231022E2
:100C900043480AF0F5F9012142480DF007F8E5E76D
:100CA0003F480AF0D9F9EBE70CF05AF802F0C0F926
:100CB000002840F00F8102208DF808900BF092F987
:100CC00002F0B6F9002840F0D7810DF10C0900249C
:100CD0000CF08AF8002800F08580032C73D101E025
:100CE0000CF096F80CF080F80028F9D102F0A0F989
:100CF00010B12B480AF0B0F9012212238DF8092017
:100D00008DF80A304FF003089DF8084020460CF09B
:100D100027F802210DF109000CF02CF88DF808409D
:100D200002F086F930B309211F480CF0BFFF002301
:100D3000102221461A480AF0A3F9012119480CF0A3
:100D4000B5FF002310229DF8091015480AF098F904
:100D5000012114480CF0AAFF002310229DF80A106C
:100D60000F480AF08DF901210E480CF09FFF0C4846
:100D70000AF072F906208DF808400BF033F902F002
:100D800057F9002840F0738103AD00260CF02CF8D1
:100D9000002840D0162E30D10AE000BF9446010052
:100DA000CC89FF1F185C0100804601000CF030F870
:100DB0000CF01AF80028F9D102F03AF916260028AA
:100DC0007DD1152035E00CF023F809F8010B8046A1
:100DD00002F02EF900285BD101340CF005F8002850
:100DE0007FF47BAF032C3FF47DAF02F021F90028A4
:100DF0006CD1013E7FF410AF7EE70CF009F805F8E6
:100E0000010B044602F014F900284DD101360BF015
:100E1000EBFF0028BED1162ECAD002F009F9002837
:100E20004DD1B8F101087FF46FAF701E002840F378
:100E30003582002303AA1C4612F8011B08254C40EA
:100E400014F0800F4FEA440418BF84F00704013DFA
:100E5000E4B2F5D101338342EEDB9DF8218089486D
:100E60004146224602F0EAF9162EC146A34602D1B7
:100E7000A04500F0138197F884108348CDF800B0A6
:100E80004B46324602F008FA002011B0BDE8F08F60
:100E90005FFA88F1002310227C480AF0F1F8012162
:100EA0007B480CF003FF97E7E1B20023102277485C
:100EB0000AF0E6F8012176480CF0F8FEA6E7734840
:100EC0000AF0CAF8162EACD11520B2E76F480AF026
:100ED000C3F88EE709216F480CF0E8FE2346102284
:100EE00041466A480AF0CCF8012169480CF0DEFE60
:100EF000234610229DF8091064480AF0C1F8012128
:100F000063480CF0D3FE102223469DF80A105F4878
:100F10000AF0B6F801215E480CF0C8FE21460DF13A
:100F20000B0002AA12F8014B6140C9B2082311F06C
:100F3000800F4FEA410118BF81F00701013BC9B2A0
:100F4000F5D19042EED1102250480AF099F84F485E
:100F50000AF082F8AFE609214E480CF0A7FE2346BE
:100F60001022414649480AF08BF8012148480CF00C
:100F70009DFE234610229DF8091044480AF080F88F
:100F8000012143480CF092FE102223469DF80A10DE
:100F90003E480AF075F801213D480CF087FE2146D5
:100FA0000DF10B0002AA12F8014B6140C9B20823EF
:100FB00011F0800F4FEA410118BF81F00701013B9A
:100FC000C9B2F5D19042EED1102230480AF058F85B
:100FD0002E480AF041F8F8E509212E480CF066FE8B
:100FE00023461022414629480AF04AF801212848A0
:100FF0000CF05CFE234610229DF8091023480AF0ED
:101000003FF8012122480CF051FE102223469DF8A2
:101010000A101E480AF034F801211D480CF046FE63
:1010200021460DF10B0002AA12F8014B6140C9B232
:10103000082311F0800F4FEA410118BF81F007012A
:10104000013BC9B2F5D19042EED110220F480AF00F
:1010500017F80E480AF000F841E507210E480CF099
:1010600025FEBCE507210C480CF020FE41E50721D8
:1010700009480CF01BFE87E6072107480CF016FE16
:1010800023E600BFC846010014470100CC89FF1FBA
:10109000185C0100804601008C4601009DF80C3070
:1010A00097F88420B3EB420F7FF4EEAE9DF80D303D
:1010B000012B7FF4E9AE9DF80E30122B7FF4E4AEE5
:1010C0009DF810309DF80F0003EB00200EF08EFF0E
:1010D0008B490EF0DFFF796EF86404460FF096F945
:1010E00000B17C66396E20460FF072F900B13C66A3
:1010F0003D1FAB4607F1180807F130064FF0000915
:101100009AF806309AF8050003EB00200EF06EFF07
:101110007C490EF0BFFF4BF8040FD8F800100446CE
:101120000FF056F909F101090AF1020A30B1B96E5E
:1011300020460FF061F908B1C8F800403168204638
:101140000FF064F908F1040800B13460B9F1060F3A
:1011500006F10406D4D10020B86407F1140455F850
:10116000041F0EF08FFEAC42F9D19DF81D209DF8B2
:101170001E30B86403EB022002300EF037FF6249E4
:101180000FF03CF8014661480FF038F860490EF066
:1011900077FE60490EF07EFF05460CF0E9FF04463D
:1011A00028460CF0E5FF5C490DF054F85B49054614
:1011B00020460EF06FFF5A490EF064FE594904466E
:1011C00028460EF067FF014620460EF05BFE014602
:1011D0004FF07E500FF012F853490EF051FE9DF87B
:1011E0001F209DF82030386503EB022009300EF0F7
:1011F000FDFE4E490FF002F8014644480EF0FEFF96
:1012000043490EF03DFE43490EF044FF05460CF005
:10121000AFFF044628460CF0ABFF3F490DF01AF82B
:101220003E49054620460EF035FF3D490EF02AFEA8
:101230003C49044628460EF02DFF014620460EF09C
:1012400021FE01464FF07E500EF0D8FF36490EF0D9
:1012500017FED7F8808078650446B8F1000F3BD1BF
:101260003D6D29462E460FF0D1F868B32946B86D7A
:101270000FF0CCF8E0B1BD65B8F1000F17D008F160
:10128000130657F82640F96D20460FF0BFF800B15D
:10129000FC65274801F0D2FF0120F6E59DF821907A
:1012A000244849464246C34601F0C8FFE3E53E6D87
:1012B000314620460FF0AAF8C8B1F96D20460FF06C
:1012C000A5F80028E4D1E4E7B96D20460FF080F8D6
:1012D0000028EDD02546CEE708F11306B96D57F882
:1012E000265028460FF074F80028C4D1C9E73146CB
:1012F000F86D0FF06DF80028CBD03446C8E700BF7A
:101300006B57053B2003C839001601470AD7E33F56
:10131000E17A644000007A4400004040A40D8F3917
:101320005A80473A46A6DB3333938843002C014763
:10133000EC460100C8460100052994BF50F8210081
:10134000002070472DE9F0410B4E8046041F00F14C
:10135000140754F8045F314628460FF039F830B1CD
:10136000D8F8681028460FF051F800B12E46BC425C
:10137000EFD13046BDE8F08100002041F8B50027EC
:10138000041F00F1140654F8045F394628460FF094
:101390003DF8054920B128460FF01AF800B12F4654
:1013A000B442F0D13846F8BD000090402DE9F04736
:1013B000876E80464FF0000A041F00F114064FF0BC
:1013C000000954F8045F394628460FF01FF8144905
:1013D00050B128460EF0FCFF30B1504629460EF0C1
:1013E00051FD09F101098246B442EAD1D8F88830AA
:1013F000994511D0D8F88C30022BD6BF0133C8F8EC
:101400008890C8F88C3048460EF0F0FD01465046F2
:101410000EF0F4FEBDE8F0870023C8F88C30F2E748
:1014200000007042D0F88800704700BF38B5D0F88F
:10143000803043B9456D046D294620460EF0C8FF43
:1014400030B1204638BD133350F82340204638BD14
:101450002C46204638BD00BF38B5D0F8803043B99F
:10146000446D056D214628460EF0B2FF30B120468E
:1014700038BD133350F82340204638BD2C46204653
:1014800038BD00BF08B5D0F880301BB1133350F819
:10149000230008BD416D006D0EF0F4FC4FF07C514F
:1014A0000EF0F8FD08BD00BF806C704701299ABF9F
:1014B000143150F821000020704700BF3E2998BF2A
:1014C00080F88410704700BF90F86C00704700BF30
:1014D000C0F88010704700BF80F86C10704700BFE4
:1014E0008166704770B500F50E550646183500F157
:1014F000280420469034FEF7B9FFAC42F9D106F13A
:10150000B805012428460021FFF7E6FF21462846BA
:101510000134FFF7D3FF3F2C05F19005F2D142F2E1
:10152000A03400250548064A064B35550021306198
:101530007161B261F361304670BD00BF00007A4452
:10154000000048430000C8C238B500F50E551835F4
:1015500000F1B80402E09034AC420AD02046FFF714
:10156000B3FF0028F7D020469034FEF7A7FFAC4227
:10157000F4D138BD2DE9F04142F2A43300F50E5606
:10158000374600228046C2501836243700F1B8048E
:1015900002E09034B4420DD02046FFF795FF0028BA
:1015A000F7D020463D68FFF73DFF90342844B44211
:1015B0003860F1D142F2A43358F80300BDE8F0815D
:1015C0002DE9F04F93B0814642F2A83310460192C4
:1015D00001284FF00002069149F8032000F0038231
:1015E00009F50E532833079309F1B80A4FF0010BA0
:1015F0005046FFF769FFC0B1002634460125314649
:101600005046D9F80870FFF797FE014638460EF0AD
:10161000DFFE18B105FA06F31C43E4B20136062ECC
:10162000EDD1019B012B0AD0F4B90BF1010BBBF1F9
:101630003F0F0AF1900ADBD113B0BDE8F08F594695
:10164000BD4809F05DFD0321BC480CF02FFB21468D
:1016500000230222B84809F013FD0321B8480CF01A
:1016600025FB002C00F018814FEA4B03DBB2194632
:10167000029343F001039DF8182003931D4618467A
:1016800033238DF826208DF825308DF824100BF0AB
:1016900067FB0DF1250002210BF06CFB09AA0592F6
:1016A0008DF824502A4609AB0DF126060020504043
:1016B000082510F0800F4FEA400018BF80F00700A7
:1016C000013DC0B2F5D19E4202D013F8012FEEE7E2
:1016D0000BF046FB01F0ACFC002840F0EC809DF8DC
:1016E00008308DF8243002200AF07CFC01F0A0FCC8
:1016F000002840F06E810AAB04931F4600250BF0D2
:1017000073FB002844D01E2D35D101E00BF080FB87
:101710000BF06AFB0028F9D101F08AFC00283DD1CA
:10172000019B012B40D0039D9DF808208DF82420BB
:10173000322328468DF825308DF826400BF010FB1B
:101740000DF1250002210BF015FB8DF8245009AB9B
:101750002A4600205040082510F0800F4FEA400034
:1017600018BF80F00700013DC0B2F5D19E423BD0CA
:1017700013F8012FEEE70BF04BFB07F8010B804647
:1017800001F056FC20BB01350BF02EFB0028BAD12E
:101790001E2DBDD001F04CFC0028C1D0664809F0D8
:1017A0005BFC019B012BBED1049D0BAF15F8011B07
:1017B00061480023102209F063FC012161480CF00C
:1017C00075FAAF42F2D103215D480CF06FFAAAE737
:1017D0005FFA88F100231022574809F051FC0121DB
:1017E00059480CF063FACEE70BF0BAFA01F020FC8E
:1017F000002840F0AD809DF808308DF8243002209C
:101800000AF0F0FB01F014FC002840F0E780049E91
:1018100000250BF0E9FA00B31E2D11D101E00BF009
:10182000F7FA0BF0E1FA0028F9D101F001FCD0B988
:10183000019B012B1DD0079A13681C441460F4E629
:101840000BF0E6FA06F8010B074601F0F1FB38BB96
:1018500001350BF0C9FA0028DED11E2DE1D001F0D0
:10186000E7FB0028E4D0344809F0F6FB019B012B8C
:10187000E1D1049E0BAD16F8011B2F480023102266
:1018800009F0FEFB01212F480CF010FAAE42F2D114
:10189000079A136823441360274809F0DDFBC4E668
:1018A000F9B200231022244809F0EAFB012126485E
:1018B0000CF0FCF9CCE7092124480CF0F7F92B4691
:1018C000102203991C4809F0DBFB01211E480CF093
:1018D000EDF92B4610229DF82510174809F0D0FB92
:1018E000012119480CF0E2F910222B469DF8261030
:1018F000114809F0C5FB012113480CF0D7F929461E
:101900000DF1270009AA12F8013B5940C9B208237A
:1019100011F0800F4FEA410118BF81F00701013B30
:10192000C9B2F5D19042EED11022034809F0A8FBCC
:10193000014809F091FBD2E6CC89FF1F6447010002
:10194000684701006C470100185C010080460100F7
:10195000092127480CF0AAF92B46102203992548A3
:1019600009F08EFB012124480CF0A0F92B4610222F
:101970009DF825101F4809F083FB01211E480CF03B
:1019800095F910222B469DF826101A4809F078FB8D
:10199000012119480CF08AF9059829460DF1270212
:1019A00010F8013B5940C9B2082311F0800F4FEAEB
:1019B000410118BF81F00701013BC9B2F5D1824254
:1019C000EED110220B4809F05BFB0A4809F044FBFA
:1019D00011E7072109480CF069F98CE6072107484F
:1019E0000CF064F913E7034809F036FBF8E500BF93
:1019F00080460100CC89FF1F185C01008C46010065
:101A00002DE9F04F824685B04FF0000901238DF893
:101A100000908DF801908DF802304FF003080024FB
:101A200020460BF09DF902210DF101000BF0A2F907
:101A30008DF8004001F0FCFA30B30921B5480CF0F4
:101A400035F9002310222146B34809F019FB012182
:101A5000B2480CF02BF9002310229DF80110AE487B
:101A600009F00EFB0121AD480CF020F900231022F3
:101A70009DF80210A84809F003FB0121A7480CF0CB
:101A800015F9A54809F0E8FA02208DF800400AF09F
:101A9000A9FA01F0CDFA002840F0898001AF3E4656
:101AA00000240BF0A1F9002867D0042C58D101E0E4
:101AB0000BF0AEF90BF098F90028F9D101F0B8FA63
:101AC00010B1954809F0C8FA9DF80430802B40F019
:101AD0001E819DF80530002B40F019819DF80640CD
:101AE000012C40F014818E4801F0A8FB0AF1B806E1
:101AF000254604E001353F2D06F1900686D030469C
:101B0000FFF7E2FC83460028F4D13B2265F07F0317
:101B100001208DF801208DF802308DF800B00BF017
:101B20001FF90DF1010002210BF024F901228DF8BB
:101B30000020E84658466B460DF102026040C0B2F4
:101B4000082410F0800F4FEA400018BF80F0070013
:101B5000013CC0B2F5D193422ED013F8014FEDE70E
:101B60000BF056F906F8010B054601F061FA98B939
:101B700001340BF039F9002897D1042C9AD001F0E8
:101B800057FA10B1644809F067FAB8F1010800F09B
:101B9000BE809DF8004043E7E9B2002310225E4872
:101BA00009F06EFA01215D480CF080F8E0E70721AA
:101BB0005C480CF07BF871E70BF0D2F801F038FAD2
:101BC00000285AD103208DF800900AF00BFA01F09A
:101BD0002FFA002840F0968000240BF005F9B0B3EE
:101BE0000A2C27D101E00BF013F90BF0FDF80028C7
:101BF000F9D101F01DFA00287FD19DF80430812B26
:101C00007FF404AF9DF805303B2B7FF4FFAE9DF8C9
:101C100006308035AB427FF4F9AE30460121FFF744
:101C20005BFC0AF50E534048DA690132DA6101F0D3
:101C300005FBEBE60BF0ECF807F8010B804601F032
:101C4000F7F970B901340BF0CFF80028C8D10A2C8D
:101C5000CBD001F0EDF9002850D1022C7FF7D6AEA1
:101C6000CBE75FFA88F1002310222B4809F008FA2D
:101C700001212A480CF01AF8E4E7092125480CF064
:101C800015F8234610220121234809F0F9F9012112
:101C900022480CF00BF8234610229DF801101E4834
:101CA00009F0EEF901211D480CF000F8102223463E
:101CB0009DF80210184809F0E3F9012117480BF0CC
:101CC000F5FF21460DF1030218F8014B6140C9B23E
:101CD000082311F0800F4FEA410118BF81F007017E
:101CE000013BC9B2F5D14245EED110220A4809F0B4
:101CF000C7F9094809F0B0F964E70A24064809F071
:101D0000ABF9AAE7072107480BF0D0FF64E705B05D
:101D1000BDE8F08F80460100CC89FF1F185C0100F0
:101D2000704701008C4601007C4701002DE9F04717
:101D300042F29C3284B000230127835082468DF802
:101D400004308DF8053000F1B8088DF806704FEAC0
:101D500047095FFA89F400214046FFF7BDFB2046A2
:101D60008DF804400AF0FCFF02210DF105000BF094
:101D700001F88DF8044001F05BF930B309214948BE
:101D80000BF094FF002310222146474809F078F910
:101D9000012146480BF08AFF002310229DF8051010
:101DA000414809F06DF9012140480BF07FFF002305
:101DB00010229DF806103C4809F062F901213B48C9
:101DC0000BF074FF384809F047F914208DF80440EF
:101DD0000AF008F901F02CF900285DD102AE0024C8
:101DE0000BF002F840B3082C19D101E00BF010F809
:101DF0000AF0FAFF0028F9D101F01AF9002846D1BB
:101E00009DF808304B4522D0013705200AF0EAF84A
:101E10003F2F08F190089AD104B0BDE8F0870AF08E
:101E2000F7FF054606F8010B01F002F920BB01346B
:101E30000AF0DAFF0028D6D1082CD9D001F0F8F842
:101E400030BB042CE0DD9DF808304B45DCD19DF81B
:101E50000930002BD8D19DF80A100129D4D19DF862
:101E60000C30002BD0D04046FFF736FB0AF50E535E
:101E7000DA690132DA61C7E7E9B2002310220A48C1
:101E800009F0FEF8012109480BF010FFCFE7082404
:101E9000054809F0E1F8D4E7072105480BF006FFF3
:101EA0009CE700BF80460100CC89FF1F185C010041
:101EB0008C4601002DE9F04700F50E56354684B0FA
:101EC000804618361C3500F1B80400272046002152
:101ED0009034FFF701FBB4422F60F7D102270DF1D8
:101EE00006064FF07F093C22A5237E217F208DF836
:101EF00005208DF806308DF8041001AD0AF030FF92
:101F00000DF1050002210AF035FF8DF804902B46F3
:101F10007F2200205040082410F0800F4FEA40003C
:101F200018BF80F00700013CC0B2F5D1B34202D027
:101F300013F8012FEEE70AF013FF01F079F80028FB
:101F40005AD17E2364208DF804300AF04BF801F05A
:101F50006FF8002840F090800DF1080A00240AF084
:101F600043FF20B3082C15D101E00AF051FF0AF01D
:101F70003BFF0028F9D101F05BF8F0B99DF808307B
:101F80007F2B21D0013FAED14046FFF739FD04B091
:101F9000BDE8F0870AF03CFF05460AF8010B01F0A6
:101FA00047F8F0B901340AF01FFF0028DAD1082CF5
:101FB000DDD001F03DF80028E0D0324809F04CF8BF
:101FC0009DF808307F2BDDD19DF809303C2BD9D10D
:101FD0009DF80A30A52BD5D19DF80B30572BD1D1C8
:101FE000D2E7E9B200231022264809F049F801217E
:101FF00025480BF05BFED5E7092124480BF056FE7F
:10200000234610227F211F4809F03AF801211E487B
:102010000BF04CFE234610229DF80510194809F0DC
:102020002FF8012118480BF041FE102223469DF89D
:102030000610144809F024F8012113480BF036FE6D
:1020400021460DF1070215F8014B6140C9B2082382
:1020500011F0800F4FEA410118BF81F00701013BE9
:10206000C9B2F5D1AA42EED11022064809F008F80B
:10207000044808F0F1FF64E7072105480BF016FE5D
:102080006AE700BFCC89FF1F185C01008046010091
:102090008C4601002DE9F04385B04FF07F082022E7
:1020A000FF2381468DF804808DF805208DF80630D9
:1020B00003260DF1060548F0010738460AF050FEE8
:1020C0000DF1050002210AF055FE8DF804703A4624
:1020D00001AB00205040082410F0800F4FEA400070
:1020E00018BF80F00700013CC0B2F5D1AB4202D06E
:1020F00013F8012FEEE70AF033FE00F099FF0028F5
:1021000040F0768202208DF8048009F06BFF00F029
:102110008FFF002840F0B2820DF1080800240AF079
:1021200063FE002843D0042C34D101E00AF070FE95
:102130000AF05AFE0028F9D100F07AFF10B1C14828
:1021400008F08AFF4FF07F0800238DF804808DF897
:102150000630032648F0010738460AF001FE0DF16B
:10216000050002210AF006FE8DF804703A4601AB24
:1021700000205040082410F0800F4FEA400018BFA4
:1021800080F00700013CC0B2F5D1AB4228D013F873
:10219000012FEEE70AF03CFE08F8010B074600F0BD
:1021A00047FF70B901340AF01FFE0028BBD1042C90
:1021B000BED000F03DFF78B9013EC3D09DF8048049
:1021C00079E7F9B2002310229E4808F059FF012157
:1021D0009D480BF06BFDE5E79A4808F03DFFEBE703
:1021E0000AF0BEFD00F024FF002840F0C08102206C
:1021F0008DF8048009F0F6FE00F01AFF002840F088
:1022000038820DF1080800240AF0EEFD002846D0BF
:10221000042C37D101E00AF0FBFD0AF0E5FD0028AF
:10222000F9D100F005FF10B1864808F015FF4FF016
:102230007F082122FF238DF804808DF805208DF87A
:102240000630032648F0010738460AF089FD0DF1F3
:10225000050002210AF08EFD8DF804703A4601ABAC
:1022600000205040082410F0800F4FEA400018BFB3
:1022700080F00700013CC0B2F5D19D4228D013F890
:10228000012FEEE70AF0C4FD08F8010B074600F045
:10229000CFFE70B901340AF0A7FD0028B8D1042C94
:1022A000BBD000F0C5FE78B9013EC0D09DF80480D7
:1022B00050E7F9B200231022624808F0E1FE012144
:1022C00061480BF0F3FCE5E75E4808F0C5FEEBE77C
:1022D0000AF046FD00F0ACFE002840F00781022025
:1022E0008DF8048009F07EFE00F0A2FE002840F088
:1022F000CF810DF1080800240AF076FD002843D0B4
:10230000042C34D101E00AF083FD0AF06DFD0028B1
:10231000F9D100F08DFE10B14A4808F09DFE4FF053
:102320007F0800238DF804808DF80630032648F0DE
:10233000010738460AF014FD0DF1050002210AF0EC
:1023400019FD8DF804703A4601AB00205040082476
:1023500010F0800F4FEA400018BF80F00700013CEA
:10236000C0B2F5D19D4228D013F8012FEEE70AF054
:102370004FFD08F8010B074600F05AFE70B9013412
:102380000AF032FD0028BBD1042CBED000F050FE74
:1023900078B9013EC3D09DF8048053E7F9B2002319
:1023A0001022284808F06CFE012127480BF07EFC23
:1023B000E5E7244808F050FEEBE70AF0D1FC00F016
:1023C00037FE002851D102208DF8048009F00AFE62
:1023D00000F02EFE002840F056810DF10808002480
:1023E0000AF002FD18B3042C14D101E00AF010FD2C
:1023F0000AF0FAFC0028F9D100F01AFE10B11148D9
:1024000008F02AFE42F2A033002209F8032005B0AA
:10241000BDE8F0830AF0FCFC08F8010B074600F069
:1024200007FE98B901340AF0DFFC0028DBD1042C48
:10243000DED000F0FDFDA0B9013EE3D09DF80480A0
:1024400075E700BFCC89FF1F185C0100F9B20023BB
:102450001022924808F014FE012191480BF026FC4E
:10246000E0E78E4808F0F8FDE6E709218D480BF01B
:102470001DFC234610223946884808F001FE012140
:1024800087480BF013FC234610229DF80510834863
:1024900008F0F6FD012182480BF008FC10222346CB
:1024A0009DF806107D4808F0EBFD01217C480BF0FB
:1024B000FDFB21460DF1070001AA12F8014B614016
:1024C000C9B2082311F0800F4FEA410118BF81F013
:1024D0000701013BC9B2F5D19042EED110226F48FD
:1024E00008F0CEFD6D4808F0B7FD6CE709216D4896
:1024F0000BF0DCFB234610223946684808F0C0FD8B
:10250000012167480BF0D2FB234610229DF80510ED
:10251000624808F0B5FD012161480BF0C7FB1022AD
:1025200023469DF806105D4808F0AAFD01215C488D
:102530000BF0BCFB21460DF1070001AA12F8014B7C
:102540006140C9B2082311F0800F4FEA410118BF62
:1025500081F00701013BC9B2F5D19042EED11022C2
:102560004E4808F08DFD4D4808F076FDB7E609218C
:102570004C480BF09BFB234610223946474808F095
:102580007FFD012146480BF091FB234610229DF868
:102590000510424808F074FD012141480BF086FB0C
:1025A000102223469DF806103C4808F069FD0121E1
:1025B0003B480BF07BFB21460DF1070001AA12F806
:1025C000014B6140C9B2082311F0800F4FEA41016D
:1025D00018BF81F00701013BC9B2F5D19042EED19D
:1025E00010222E4808F04CFD2C4808F035FDFEE581
:1025F00009212C480BF05AFB234610223946274864
:1026000008F03EFD012126480BF050FB2346102226
:102610009DF80510214808F033FD012120480BF0FA
:1026200045FB102223469DF806101C4808F028FDA3
:1026300001211B480BF03AFB21460DF1070001AACE
:1026400012F8014B6140C9B2082311F0800F4FEA24
:10265000410118BF81F00701013BC9B2F5D1904299
:10266000EED110220D4808F00BFD0C4808F0F4FCE8
:1026700048E507210C480BF019FBC2E507210A4881
:102680000BF014FB48E5072107480BF00FFBA4E60D
:10269000072105480BF00AFB2BE600BFCC89FF1F82
:1026A000185C0100804601008C46010038B500F539
:1026B0000E55183500F1B80402E09034AC420AD04F
:1026C0002046FEF701FF0028F7D020469034FEF7A1
:1026D000E1F8AC42F4D138BD2DE9F04F05460023B6
:1026E00045F8B83B00F50E5783B082462C461837A4
:1026F00002E09034A7420AD02046FEF7E5FE00280B
:10270000F7D020469034FEF7C5F8A742F4D142F244
:102710009C332C465AF80330072BD4BFC8203220F4
:1027200009F060FC012604E001363F2E04F190041C
:1027300077D02046FEF7C8FE0028F5D07F4800F08D
:102740007DFD31467E4800F079FD2046FEF776F9A2
:102750002046FEF7A9FE0CF0F3FF02460B4679482F
:1027600000F06CFD2046FEF7EDFD80462046FEF7AA
:1027700005FE834640460CF0E3FF804658468946F6
:102780000CF0DEFF42464B46CDE900016E4800F0FA
:1027900055FD00212046FEF789FE01218046204696
:1027A000FEF784FE834640460CF0CAFF804658463A
:1027B00089460CF0C5FF42464B46CDE9000163480F
:1027C00000F03CFD2046FEF76FFE0146DAF80000FF
:1027D0000DF058FBCAF800002046FEF727FEDAF895
:1027E00018100DF0F5FD002840F084802046FEF71B
:1027F00033FEDAF81C100DF009FE002894D02046B4
:10280000FEF714FE52490DF001FE00288CD0204640
:10281000FEF722FE01363F2ECAF81C0004F1900498
:1028200087D1DAF804000DF0E1FB0146DAF8000088
:102830000DF0E4FCDAF81410CAF8000004460DF0BC
:10284000E5FD08B1CAF81440DAF8101020460DF082
:10285000BFFD08B1CAF810400B2009F08DFB42F211
:10286000A0331AF80330002853D1002B61D042F274
:10287000A03301220AF803200023CAF80C302C46AA
:1028800002E09034A74215D02046FEF71DFE002836
:10289000F7D02046FEF772FDDAF80C100DF0B6FD09
:1028A0000028EED02046FEF769FD9034A742CAF812
:1028B0000C00E9D1274BCAF8083002E09035BD4240
:1028C00015D02846FEF700FE0028F7D02846FEF770
:1028D00039FDDAF808100DF07BFD0028EED028460F
:1028E000FEF730FD9035BD42CAF80800E9D103B0CB
:1028F000BDE8F08F2046FEF799FD15490DF086FDE5
:1029000000283FF473AF2046FEF790FDCAF8180088
:102910006CE72BB942F2A03300220AF80320ABE7A0
:102920000D4800F0A3FC42F2A03300220AF8032075
:10293000A2E70A4800F0B0FC99E700BF8C4E010006
:1029400090470100CC470100E04701000C4801001E
:1029500000008CC20000A04060480100284801002F
:102960008068704742F29C33C0587047C068704717
:102970000068704741607047F8B500F50E550F4686
:102980001646183500F1B80402E09034AC420FD07E
:102990002046FEF799FD0028F7D020463946FEF77D
:1029A00097FD204631469034FEF79AFDAC42EFD1B8
:1029B000F8BD00BF2DE9F041274A284B426200F5DF
:1029C0000E5507464FF000080362183500F1B804B1
:1029D000002602E09034A54210D02046FEF774FD98
:1029E0000028F7D02046FEF74DFD1D490DF00EFDE5
:1029F00080B99034A54206F10106EED142F29C3333
:102A0000F858801B0DF0F2FA014640460DF0F6FB37
:102A1000BDE8F0812046FEF735FD014640460DF049
:102A200031FA80462046FEF717FD396A0DF0EEFCBC
:102A300060B92046FEF7FAFC796A0DF0C9FC00285F
:102A4000C8D02046FEF7F2FC7862C3E72046FEF7C6
:102A500003FD3862EDE700BF00C0794400C079C4CF
:102A600000008CC2006A7047406A7047F8B500F5F4
:102A70000E5507460026183500F1B80402E09034E0
:102A8000AC420FD02046FEF71FFD0028F7D02046AD
:102A9000FEF78CFC014630460DF0F4F99034AC4260
:102AA0000646EFD142F29C33F8580DF09FFA0146EA
:102AB00030460DF0A3FBF8BD2DE9F04F06468FB070
:102AC00076488B4600F062FB744800F05FFB734869
:102AD00000F05CFB42F29C333046F2580D92FEF758
:102AE00049FD73680C93074630680CF029FE804658
:102AF00030468946FFF7BAFF82463046B468F5682B
:102B0000FFF758FF0CF01CFECDE90A0121462846CC
:102B10000DF0B6F962490DF0BDFA0CF011FECDE9E9
:102B2000080128460CF00CFECDE9060120460CF009
:102B300007FECDE9040150460CF002FE0D9A0C9BF5
:102B4000CDE90201CDE90089114656483A4600F028
:102B50001DFB524800F01AFBB83601274FF0000A5F
:102B600005E001373F2F06F1900600F08E803046D9
:102B7000FEF7AAFC0028F4D03046FDF77BFE304675
:102B8000FDF77CFE3046FDF77DFE3046FDF77EFE0C
:102B9000082145480BF08AF83946444808F0B0FA55
:102BA000092F75DD022142480BF080F83046FEF710
:102BB0007BFC0CF0C5FD5FFA8BF902460B46CDF8A5
:102BC00000903A4808F0A4FA01213A480BF06EF858
:102BD0005546002420E0062137480BF067F82946C7
:102BE000324808F08DFA022134480BF05FF8214694
:102BF0003046FEF7A1FB0CF0A3FDCDF80090024695
:102C00000B462A4808F084FA0134012129480BF0C8
:102C10004DF8062C09D04546092D05F10108DADCEE
:102C2000012127480BF042F8D5E7112125480BF088
:102C30003DF800213046FEF739FC0CF081FD0224FE
:102C400002460B460094194808F062FA12211E4809
:102C50000BF02CF801213046FEF728FC0CF070FD3B
:102C6000009402460B46114808F052FA0121174819
:102C70000BF01CF801370D4808F0EEF93F2F0AF170
:102C8000060A06F190067FF472AF0FB0BDE8F08F30
:102C900001210B480BF00AF884E700BF8C4E0100BD
:102CA00000007A44084B0100A84B0100CC89FF1FAB
:102CB0007C5D0100B44B0100B84B0100584C010091
:102CC000185C0100C04B0100D44B0100E84B01002F
:102CD0002DE9F04F83B000F1B8060C9D884691466F
:102CE0009A4637464FF0010B07E00BF1010BBBF1A1
:102CF0003F0F07F1900700F088803846FEF7E4FBAD
:102D00000028F2D000230A224146C24808F0B8F950
:102D1000012D00F00E810121BF480AF0C7FF48468F
:102D20000CF00EFD002402460B460094B94808F052
:102D3000EFF90121B8480AF0B9FF5146B54808F04B
:102D4000DFF90121B4480AF0B1FF5946B14808F053
:102D5000D7F90121B0480AF0A9FF002421463846DE
:102D6000FEF7EAFA0CF0ECFC4FF0020E02460B46BE
:102D7000CDF800E0A74808F0CBF9012D4FF0010194
:102D8000A54804BFA548294601340AF08FFF082C46
:102D9000E4D100213846FEF789FB0CF0D1FC022477
:102DA00002460B4600949B4808F0B2F9012D00F052
:102DB000E380012198480AF079FF01213846FEF7A7
:102DC00075FB0CF0BDFC009402460B46914808F0E0
:102DD0009FF9012190480AF069FF02213846FEF769
:102DE00065FB0CF0ADFC022402460B4600948948BA
:102DF00008F08EF90BF1010B864808F02DF9BBF1B4
:102E00003F0F07F190077FF478AF4FF0010B07E019
:102E10000BF1010BBBF13F0F06F1900600F086802D
:102E20003046FEF751FB0028F2D000230A2241462B
:102E30007B4808F025F9012D00F0B3800121764888
:102E400009F080FB48460CF07BFC002402460B4650
:102E50000094734808F05CF901216F4809F072FB97
:102E600051466F4808F04CF901216B4809F06AFBA4
:102E700059466B4808F044F90121674809F062FBA4
:102E8000002421463046FEF757FA0CF059FC022781
:102E900002460B460097624808F03AF9012D4FF0C0
:102EA00001015D4804BF5D482946013409F04AFB31
:102EB000082CE6D100213046FEF7F8FA0CF040FC71
:102EC000022402460B460094554808F021F9012DD2
:102ED00000F08A800121504809F034FB012130467E
:102EE000FEF7E4FA0CF02CFC009402460B464C482A
:102EF00008F00EF90121484809F024FB0221304670
:102F0000FEF7D4FA0CF01CFC022402460B46009497
:102F1000434808F0FDF80BF1010B414808F09CF81C
:102F2000BBF13F0F06F190067FF47AAF03B0BDE826
:102F3000F08F294639480AF0B9FE48460CF000FCEB
:102F4000002402460B460094324808F0E1F8294676
:102F500032480AF0ABFE51462E4808F0D1F8294617
:102F60002E480AF0A3FE59462A4808F0C9F8294617
:102F70002A480AF09BFEF0E6294628480AF096FE09
:102F800029463846FEF792FA0CF0DAFB0094024626
:102F90000B46204808F0BCF8294620480AF086FE77
:102FA0001BE729461D4809F0CDFA48460CF0C8FB3E
:102FB000002402460B460094194808F0A9F8294657
:102FC000164809F0BFFA5146154808F099F8294605
:102FD000124809F0B7FA5946114808F091F8294605
:102FE0000E4809F0AFFA4BE729460C4809F0AAFA57
:102FF00029463046FEF75AFA0CF0A2FB009402462E
:103000000B46074808F084F82946044809F09AFA64
:1030100074E700BFCC89FF1FEC4B0100185C010076
:103020008C88FF1F014B1870704700BFFC87FF1F83
:10303000024B1878B0FA80F040097047FC87FF1FF8
:103040000278002A00F0908070B5034682B00D46E9
:10305000252A2AD158785C1C08B325282FD073283C
:1030600031D0642824D0692822D066284FD07A280D
:1030700059D0782835D058282FD062283ED0422801
:1030800038D06C2814D0632812D0742857D0542814
:103090005FD00AF08FFE6278631C002AD8D13448D2
:1030A00002B0BDE8704007F0D7BF18781C46F0E7C3
:1030B0002B1D29682E481D4608F022F8EBE7104624
:1030C0000AF078FEE7E72E6830460EF079F90146FF
:1030D000304604350AF0EAFDDDE7022125480AF012
:1030E000E5FD2E1D2968224800231022354607F0F1
:1030F000C7FFD0E7022120480AF0D8FD2E1D29681D
:103100001B4800230222354607F0BAFFC3E7073504
:1031100025F007050321D5E900231548009108355E
:1031200007F0F6FFB7E7073525F007050021D5E9D9
:1031300000230F480091083507F0EAFFABE7296844
:1031400001290EBF0D480E48012104350AF0AEFDDD
:10315000A1E72B68012B07BF04210A480A48052173
:1031600004350AF0A3FD96E7014807F075BF00BFDC
:10317000CC89FF1FF04B0100F44B0100F84B01001C
:10318000FC4B0100004C0100084C01000FB400B5DD
:1031900083B004A951F8040B0191FFF751FF03B06C
:1031A0005DF804EB04B0704770B51B4B1B4C1B68FB
:1031B00082B00D460193019B23601946044600230B
:1031C000164617480A2207F05BFF032115480AF04C
:1031D0006DFD032C07D8DFE804F01A151002052155
:1031E00011480AF063FD022110480AF05FFD3146E4
:1031F0002846FFF725FF02B070BD07210C480AF0F2
:1032000055FDF0E704210B480AF050FDEBE70521DE
:1032100009480AF04BFDE6E764BFFF1F4C94FF1F0F
:10322000CC89FF1F64470100284C0100584C010065
:10323000204C0100184C0100104C01000FB400B5E7
:10324000094B187883B020B103B05DF804EB04B0EB
:10325000704705AB1A4604990193FFF7A5FF03B029
:103260005DF804EB04B07047FC87FF1F0FB4094BF7
:1032700000B51B78012B83B004D903B05DF804EBD3
:1032800004B0704705AB1A46049901930120FFF77B
:103290008BFFF2E7FC87FF1F0FB40B4B00B51B78C9
:1032A000032B83B004D903B05DF804EB04B070477E
:1032B00005AB1A46049901930320FFF775FF03B08D
:1032C0005DF804EB04B07047FC87FF1F30B4074D76
:1032D000074C084900232B70236003654365836511
:1032E00080F85C300B6030BC704700BF5894FF1F03
:1032F0005494FF1F5094FF1F70B5132008F03CFE3C
:10330000A8B1114E114B35881C6808F049FEADB2CA
:103310002C44201A33880E4AC0EB00108000A0F61F
:1033200034009BB2B0FBF3F39BB2138070BD074C2B
:1033300008F036FE2368044AC01A80B2108008F0F4
:103340002FFE206070BD00BF1ABDFF1F7CBDFF1F98
:103350008CBDFF1F0A4A0B49106ED36D03FB00F3AF
:103360004FF47A7000FB03F0642310B50B600CF08F
:103370003DFE0549054C0CF041FF206010BD00BF2B
:103380001CBCFF1F1088FF1FE4388E3E6CBDFF1F62
:1033900010B4019C521AA4EB030412D0401A002C62
:1033A00004FB00F002EBD27111DB00EB610101FBC9
:1033B00002F0002891FBF2F10B4414DB184610BC1C
:1033C000704704EBD47003EB600010BC7047A0EBB7
:1033D000610000FB02F1002990FBF2F01844EEDBE3
:1033E000013010BC7047581E10BC704710B5074C18
:1033F000204607F031FE064B2046196807F080FE94
:1034000003210448BDE810400AF050BCCC89FF1FDE
:103410009897FF1F304C010070B5044608460D46D2
:103420000DF0CEFF23680246294620465B68BDE8C2
:103430007040184738B5044608460D460DF0C0FFE9
:103440002368024629465B68204698470546204681
:1034500007F002FE284438BDF8B55548554C564E85
:10346000564FFFF793FE564B5649574A57485960F7
:10347000142557491D70DA60564D1C6100224FF427
:10348000FA749E619F62544E544FD861D9624FF0D6
:103490007C5053491D639A63524D9C860C22524CBA
:1034A000DE631F64514ED8649627022019655D655E
:1034B00001214F4D9A655C6200223224C3F8C86036
:1034C000A3F8667064264FF49677587058721D62A0
:1034D0005D615D6483F8482040F61C45C3F8A84050
:1034E0001E66A3F86A70A3F864701972D965A3F810
:1034F0006840C3F88000C3F89040C3F8B040C3F8F8
:10350000BC0041F204044FF47A70DA67C3F88820F3
:10351000C3F8AC20C3F8C06083F8CD2083F8CE2078
:10352000344FDD6644F62062334D5C675526FF2438
:10353000C3F89400F020C3F89870C3F89C50C3F807
:10354000A0204FF4167541F28832C3F8B440C3F896
:10355000DC6040F2D664C3F8E0004FF00A0C274864
:10356000274EC3F884104FF05A0E0527C3F8B81041
:10357000C3F870C0C3F878E0A3F8C670A3F8D050C1
:10358000A3F8D450A3F8D220A3F8D620C3F88C20F7
:10359000A3F8C420A3F8A440A3F8A64083F8D81049
:1035A000C3F8EC60C3F8E400C3F8E800F8BD00BF5E
:1035B000344C01000000404033338340CDCCCC3D3F
:1035C0001CBCFF1F20A1070066668640CDCC4C4086
:1035D00000008242000020C1000020420000A04004
:1035E0009A9979400AD7233D333373409A99993E8B
:1035F000CDCC4C3E0000114400F0C84500409C4535
:103600000000F0412DE9F84F6C4C6D4D6D48E668B7
:1036100000232B70FFF7AAF9014630460CF0D8FEC4
:1036200008B102232B706748FFF79AF921690CF063
:10363000CFFE18B12B7843F004032B706148FFF7DD
:1036400011FAE16A0CF0E2FE18B12B7843F008039E
:103650002B705C48FFF708FA216B0CF0B9FE18B12B
:103660002B7843F016032B70DFF86CA15649DAF87B
:103670000000DFF868910CF0C1FD0CF0E7FEB9F82E
:10368000003080EAE072A2EBE0729A4203DD2B7810
:1036900043F040032B70DFF848814949B8F8003007
:1036A0004A4F9842C8BF01234FF000026A70C8BF5A
:1036B0004B703B78052B7CD0454E3368012B73D083
:1036C000444D404800232B70FFF750F9A16A834610
:1036D000E0680CF0D5FB014658460CF097FE08B1A7
:1036E00004232B703748FFF73BF9A16A8346206912
:1036F0000CF0C8FB014658460CF06AFE18B12B7856
:1037000043F004032B702F48FFF7ACF9216C83467C
:10371000E06A0CF0B5FB014658460CF077FE18B194
:103720002B7843F008032B702648FFF79DF9216C96
:103730008346206B0CF0A6FB014658460CF048FE71
:1037400018B12B7843F016032B701F49DAF80000EC
:103750000CF054FD0CF07AFEB9F8003080EAE0720B
:10376000A2EBE0729A4203DD2B7843F040032B700A
:10377000B8F8003017499842C8BF01234FF0000243
:103780006A70C8BF4B703B78052B08D03368012B9B
:1037900003D16B7843F016036B70BDE8F88F6B783C
:1037A00043F008036B70F1E76B7843F016036B701E
:1037B00086E76B7843F008036B707DE71CBCFF1F46
:1037C00008BCFF1FA897FF1F0000C84210BCFF1FC6
:1037D0005CBDFF1F58BDFF1F0CBCFF1F84BDFF1F3A
:1037E0002497FF1FF8B5524CD4F8BC30082B00F0DA
:1037F0009A80504D5048E66800232B70FFF7B6F8CA
:10380000014630460CF0E4FD08B104232B704A4811
:10381000FFF7A6F821690CF0DBFD18B12B7843F017
:1038200010032B704448FFF71DF9E16A0CF0EEFD20
:1038300018B12B7843F040032B7000233E486B7087
:10384000FFF712F9216B3B4E0CF0C2FD08B10123CA
:10385000737000233848EB70FFF788F80546364848
:10386000344EFFF77DF8014628460CF009FB616CE9
:103870000CF0CCFD08B10123F370304D2E4800232D
:103880002B70FFF773F8A16A0646E0680CF0F8FAAF
:10389000014630460CF0BAFD08B104232B702648CF
:1038A000FFF75EF8A16A064620690CF0EBFA0146C4
:1038B00030460CF08DFD18B12B7843F010032B70BF
:1038C0001D48FFF7CFF8216C0646E06A0CF0D8FAE5
:1038D000014630460CF09AFD18B12B7843F04003B6
:1038E0002B70002314486B70FFF7BEF8216C134F48
:1038F0000646206B0CF0C6FA014630460CF068FD17
:1039000008B101237B700C48FFF7AEF8216C064626
:10391000206B0CF0B7FA014630460CF059FD08B1A7
:1039200001236B70F8BDBDE8F840FFF76BBE00BF28
:103930001CBCFF1F08BCFF1FA897FF1F58BDFF1F1F
:103940002DE9F041844C2368012B82B025D0022B55
:1039500054D0032B74D0EBB9804B8148D3F8B020FE
:10396000D3F8B4100368891A002903FB01F37D49D9
:10397000C0F28880323381FB0301D817C0EB61119C
:10398000002B1144C0F29380062002B0BDE8F04144
:1039900008F06CB902B0BDE8F081734E33680A33A9
:1039A000B3F57A7F7EDC184633600CF01FFB6F495D
:1039B0000CF070FB8046694DD5F8B0000CF016FB9A
:1039C0000746D5F8B4000CF011FB39460CF058FA54
:1039D00041460CF05FFB66490CF010FC39460CF0D8
:1039E00051FA0CF033FD0146062008F03FF9614B17
:1039F0001B68002B62D12368022BAAD15A4B574E69
:103A000000221A60D6F8B0000CF0F0FA0546D6F89D
:103A1000B4000CF0EBFA29460CF032FA00210CF05D
:103A200039FB53490CF0EAFB29460CF02BFA0CF059
:103A30000DFD0146062008F019F92368032B8AD1F1
:103A4000494B464E4FF47A721A60D6F8B0000CF02B
:103A5000CDFA0546D6F8B4000CF0C8FA29460CF0A9
:103A60000FFA43490CF016FB41490CF0C7FB2946FD
:103A70000CF008FA0CF0EAFC0146062008F0F6F813
:103A8000236868E7323B81FB0310D917C1EB601153
:103A9000002B0A445DDB511C062002B0BDE8F0415A
:103AA00008F0E4B800234FF00008336083E70139E1
:103AB000062002B0BDE8F04108F0D8B802212E4837
:103AC0000AF0F4F82D4807F0C7FA06212C480AF04E
:103AD000EDF830680CF08AFA24490CF0DBFA0BF0B0
:103AE0002FFE022702460B460097244807F010FBE2
:103AF0000D2124480AF0DAF8D5F8B0000CF076FA77
:103B0000804630680CF072FA18490CF0C3FA064689
:103B1000D5F8B4000CF06AFA41460CF0B1F9014650
:103B200030460CF0B7FA12490CF068FB41460CF035
:103B3000A9F90BF005FE009702460B460F4807F067
:103B4000E7FA39460C480AF0B1F80C4807F084FA55
:103B500051E7114618E700BF2897FF1F1CBCFF1F45
:103B60001088FF1F1F85EB5110BDFF1FCDCCCC3D32
:103B70000000C8420088FF1F7C5D0100CC89FF1F48
:103B8000544C01005C4C010030B51548154C83B015
:103B900007F062FA124807F05FFA134B10481968F1
:103BA00007F0AEFA0E4807F057FA0D210F480AF059
:103BB0007DF8D4F8AC30012B1CD00D4D0848297885
:103BC00000230A2207F05CFA2B78052B74D8DFE873
:103BD00013F074017901CB01D001D501DA0100BFE6
:103BE000CC89FF1F1CBCFF1F6894FF1F6C4C010099
:103BF00010BCFF1F0921B6480AF058F8B548FEF777
:103C0000AFFE21690CF0E4FB18B10F21B2480AF0B5
:103C10004DF8B048FEF7AAFEE1680CF0F7FB18B1CA
:103C20000E21AE480AF042F8AA48FEF79FFE05466C
:103C3000A848FEF795FE014628460CF021F9616C74
:103C40000CF0E4FB18B11121A5480AF02FF8A148A7
:103C5000FEF7B0FEE16A0CF0D9FB18B10C21A148C7
:103C60000AF024F89B48FEF7A5FE216B0CF0B0FB90
:103C700018B10D219C480AF019F89C4B95481B6817
:103C8000012B00F09881FEF76BFE2169984D0CF036
:103C9000BDFB002800F00F818E48FEF767FEE96843
:103CA000944D0CF095FB38B12B78052B00F09881E2
:103CB0000821914809F0FAFF0221904809F0F6FF27
:103CC000122008F059F9012800F07081112008F045
:103CD00053F9012800F05C81894B1B68012B00F02F
:103CE000608102218548874C09F0E0FF864B8748B8
:103CF000196807F005FA854807F0AEF904218448F1
:103D000009F0D4FF0B2008F037F9002301460A22FE
:103D10007E4807F0B5F90C2008F02EF90023014683
:103D20000A227A4807F0ACF9142008F025F900239C
:103D300001460A22754807F0A3F9152008F01CF97E
:103D40000A2200230146714807F09AF906217148BA
:103D500009F0ACFF2368DB074FF001014CBF6E4850
:103D60006E4809F0A3FF236898074FF001014CBF8C
:103D700069486A4809F09AFF23685A074FF0010121
:103D80004CBF6548654809F091FF23681B074CBF8D
:103D900061486248012109F089FF0421604809F067
:103DA00085FF112008F0E8F8002301460A22574851
:103DB00007F066F9102008F0DFF8002301460A2218
:103DC000524807F05DF9122008F0D6F800230146AA
:103DD0000A224E4807F054F9132008F0CDF80A22C1
:103DE00000230146494807F04BF918214D4809F0D6
:103DF0005DFF4D4B18880CF0F9F84C490CF04AF96E
:103E00000BF09EFC002402460B4600943F4807F04E
:103E10007FF91D21464809F049FF464B18880CF0F0
:103E2000E5F842490CF036F90BF08AFC00940B4699
:103E300002463648404C07F06BF902213F4809F032
:103E400035FF2B78032B02D023889BB293B1172127
:103E50003B4809F02BFF21882C4889B207F050F924
:103E60000221364809F022FF2B78032B02D1354B73
:103E70001B780BB903B030BD0B21334809F016FF96
:103E8000324B2248198889B207F03AF9112130489B
:103E900009F00CFF2F4B1D48198807F031F92E4B04
:103EA0001B78002B00F097802C481D2103B0BDE843
:103EB000304009F0FBBE0F4DFEE60621284809F010
:103EC000F5FEF9E60721274809F0F0FEF4E600BF09
:103ED0007C4C0100A897FF1F884C0100984C010002
:103EE000A84C0100BC4C0100CC4C01003097FF1FD6
:103EF0001CBCFF1F10BCFF1F004D01007C5D0100BA
:103F00005CBDFF1F90BDFF1F6C94FF1FCC89FF1F7E
:103F1000744D01007C4D0100844D0100884D01006D
:103F20008C4D0100944D01002497FF1FCDCCCC3D5A
:103F3000B04D010084BDFF1F8CBDFF1FD04D01009F
:103F4000304E01006CBBFF1FD44D01001ABDFF1F96
:103F5000E04D010078BDFF1F9497FF1F104E010038
:103F60000C4D0100144D01000721204809F09EFE70
:103F7000A2E608211E4809F099FE9DE60B211D4886
:103F800009F094FE98E607211B4809F08FFE93E69E
:103F90000A211A4809F08AFE194B1B68012B7FF48D
:103FA000A0AE1121174809F081FE9AE60E211648AD
:103FB00009F07CFE8AE6FEF7D3FC616A0CF026FA73
:103FC00060B116211148124D09F070FE0A21114806
:103FD00009F06CFE70E619210F4867E70C4D67E6A3
:103FE0000A210C4809F062FE66E600BF284D010078
:103FF000304D01001C4D01003C4D0100544D0100AD
:104000005CBDFF1F604D0100444D0100DC4C010010
:1040100010BCFF1FF44C0100F44D01002DE9F04FDE
:10402000AB4CD4F88060012E8DB000F07981032E66
:1040300000F0CC80DFF8DC82A64FA74EE36FA748E4
:10404000012B09BF3168316801F10041316006F090
:104050002FFE3B68002B40F09F80A048DFF8B49211
:1040600006F0FCFD3B68C8F800000546002B44D173
:10407000D4F88030964A012B53D0994928460CF049
:10408000C5F9C0B9974928460CF0A2F998B9964AE3
:10409000964B12680B920B9A1A60D4F8B8000BF08A
:1040A000A5FF29460BF0F6FF0023C8F80000336097
:1040B0000DB0BDE8F08FDFF830A28C4FDAF8003099
:1040C0000A930A983B68DFF85092C01A0BF08AFFF7
:1040D00029460BF0DFFF86490CF090F884490CF07C
:1040E0008DF8D9F800100BF0CDFEDAF80030099306
:1040F000099BC9F800003B60CFE70BF021FB0225CC
:1041000002460B4600957B4807F002F804217A48E6
:1041100009F0CCFDD4F88030D9F800506C4A012B5E
:10412000ABD1764B1B68012B00F0DA81022BB4D1A6
:10413000D2F8A07038460BF059FF29460CF048F928
:1041400040B978420BF052FF29460CF05FF9002885
:1041500000F0F981DFF890A1644FDAF8003007939E
:1041600007983B68DFF8B091C01A0BF03BFF294677
:104170000BF090FF5E490CF041F85D490CF03EF801
:10418000D9F800100BF07EFEDAF800300693069B9B
:10419000C9F800003B6080E7504806F05FFD0BF077
:1041A000CFFA022502460B460095524806F0B0FFB2
:1041B0000321534809F07AFDD4F8A0104D4806F0C9
:1041C0009FFF03214E4809F071FD46E74D4D4B4FCF
:1041D0002B68DFF84081D3F884000F2101233B6076
:1041E00005F0D4FF3B683B4F012B3B6800F0BF80DC
:1041F000002B40F03D812B68DFF82091D3F884003C
:10420000436B19698EB2C9F8006005F041FDB4F83E
:10421000A62040F6E44303FB06F1B1FBF0F0801A60
:1042200000B20BF0E3FE38492B4E8246D4F89800DA
:104230000BF030FF014650460BF0E0FFD9F800309C
:104240003060632BDFF8D4A000F3068100233360D5
:104250003B68002B3FF4F2AE02212C4809F026FD0A
:104260002B68D9F80050D3F8840040F6E44303FBF0
:1042700005F505F00DFDB5FBF0F00BF0B3FE0546BE
:10428000B4F8A6000BF0B2FE014628460BF0F8FD8C
:104290000BF056FA022502460B460095154806F02B
:1042A00037FF2946194809F001FD30680BF048FA3C
:1042B000009502460B460F4806F02AFF294614488F
:1042C00009F0F4FC2946114809F0F0FCB6E600BFFD
:1042D0001CBCFF1F00BCFF1F80BDFF1F30BDFF1FA8
:1042E0000000FA430000FAC364BFFF1F04BCFF1FB5
:1042F00000007A44CC89FF1F884E01002888FF1FE8
:1043000068470100A0BDFF1F9175DD367C5D01008F
:10431000844E01000CBCFF1F6CBDFF1FA8BDFF1F1A
:10432000DFF80883D4F8A070D8F8005038460BF0B6
:104330005DFE29460CF06AF848B178420BF056FE53
:10434000014628460CF062F8002840F00381A54D94
:10435000A54F2A680223D2F884003B600E2105F0A5
:1043600015FF3B68A14F012B3B687FF441AF002B49
:1043700040F0FA802B68DFF8B892D3F88400436BE2
:1043800019691FFA81FBC9F800B005F081FCB4F887
:10439000A430974E40F6E44A0AFB0BFBBBFBF0F05F
:1043A000C01A00B20BF022FE92498346D4F89C005A
:1043B0000BF070FE014658460BF020FF2A68D9F832
:1043C00000303060D2F884000AFB03FA05F060FC8C
:1043D000B4F8A430BAFBF0F00FFA80FAC3EB0A038A
:1043E000002BB4F8C620B8BF5B429342BCBF002389
:1043F00033603B68002B3FF421AE02217E4809F078
:1044000055FC2B68D9F80050D3F8840040F6E443FB
:1044100003FB05F505F03CFCB4F8A410B5FBF0F087
:1044200000B2411A754806F06BFE0221724809F08D
:104430003DFC30680BF084F9022502460B460095DE
:104440006E4806F065FE03216D4809F02FFC2946F1
:10445000694809F02BFCF1E52B68D3F8840005F0DE
:1044600017FCDAF8003064389842FFF4EFAEEFE65C
:104470006248DFF8BC91DFF86CA106F0EDFD0C217D
:10448000604809F013FC0C215F4809F00FFC2A6812
:104490003B68D2F88400426B11698EB2C9F80060A3
:1044A000002B3FF4B2AE05F0F3FB40F6E4410023ED
:1044B0000A2201FB06F1B1FBF0F1504806F0E0FDE5
:1044C00002214D4809F0F2FBB4F8A6104B4806F063
:1044D00017FEDAF80030D9F80060D3F8840094E6CB
:1044E0004A4928460BF092FF58B9494928460BF033
:1044F0006FFF30B9474A484B12680592059A1A6017
:10450000CBE5DFF810A1444FDAF8003004930498AB
:104510003B68DFF82091C01A0BF064FD29460BF0D0
:10452000B9FD3E490BF06AFE3C490BF067FED9F835
:1045300000100BF0A7FCDAF800300393039BC9F8D6
:1045400000003B60A9E5334A334B12680892089A91
:104550001A60A2E5234D244F2B683E60D3F88400F7
:104560000F2105F013FE3DE62448DFF8C4901D4EF0
:1045700006F072FDD4F88030012B4FF00B010CBF18
:104580002748284809F092FB0C211F4809F08EFBB0
:104590002A683B68D2F88400426B11691FFA81FBDC
:1045A000C9F800B0002B3FF4F0AE05F071FB40F607
:1045B000E44100230A2201FB0BF1B1FBF0F10F48AB
:1045C00006F05EFD0121184809F070FBB4F8A41054
:1045D0000A4806F095FD3368D9F800B0D3F8840096
:1045E000D3E600BFA0BDFF1F2888FF1F00BCFF1F30
:1045F00080BDFF1F9175DD367C5D0100CC89FF1FFA
:10460000704E0100744E0100604E01000000FA433C
:104610000000FAC364BFFF1F04BCFF1F00007A4400
:10462000484E0100544E0100185C01000CBCFF1FF5
:10463000A8BDFF1F6CBDFF1F2DE9F04F9D4C2368E7
:1046400087B01BB99C4B1B68002B7BD09B4EDFF8BF
:1046500078829B4FDFF8BC92D6F88830974D012BBB
:1046600000F09A802C6ED7F800A0ED6D04FB05F4E5
:104670004FF47A7000FB04F00BF0B8FC9149924DB6
:10468000044650460BF006FD21460BF0B7FD8F495E
:104690000BF000FD0BF0DAFE6328C8F800004CDDDB
:1046A000204688490BF0AAFD642338602B60D9F8B6
:1046B0000030002B3ED0D6F88030804C012B00F02B
:1046C0009180032B00F0E980022B00F0ED800221A5
:1046D0007F4809F0EBFA7F4B18680BF031F80224A1
:1046E00002460B4600947C4806F012FD21467B48AA
:1046F00009F0DCFA2146764809F0D8FAD8F800101B
:10470000754806F0FDFC0621754809F0CFFA3868B7
:104710006C490BF0BFFC0BF013F8009402460B46FB
:104720006D4806F0F5FC03216E4809F0BFFA6A48AF
:1047300006F092FC07B0BDE8F08F0028BCBF002354
:104740002B60B4E7684D2B680393039BB3F57A6F36
:1047500007D9664E336823B96548FDF7ABFB0123E3
:1047600033602B680493049A544E41F294139A4296
:1047700000F28C802B680593059A41F288339A42A7
:104780003DD8D6F88830DFF840814D4FDFF884916E
:104790004A4D012B7FF466AF5548FEF7E1F85549C5
:1047A000D5F874A0EC6ED5F870B00BF073FC0BF07C
:1047B00073FEAB6F0093524621465B4680B2FEF714
:1047C000E7FD2C6EED6D04FB00F005FB00F000EB47
:1047D000800040000BF00AFC3A490BF00FFD8246C6
:1047E000386043E7444B1B68012B4FF00A010CBFB4
:1047F0004248434809F05AFAD4F8803061E706216C
:104800004048DFF8C48009F051FA334806F024FC30
:104810003748FEF7A5F83749D6F87090776FF56EF0
:104820000BF038FC0BF038FEB36F00933A464B4662
:10483000294680B2FEF7ACFD326EF36DC8F8000079
:1048400002FB00F003FB00F000EB800040000BF0E7
:10485000CDFBDFF8C0901B49194F0BF0CFFCD9F806
:104860000030386001222260002B3FF4F5AE0221B7
:10487000174809F01BFA184806F0EEFB59212248A8
:1048800009F014FA144806F0E7FBE5E61848F26C64
:1048900096F84810FEF770F86CE710211B4809F0F5
:1048A00005FAD6F880300FE70721194809F0FEF91C
:1048B0000DE700BFA497FF1F9CBDFF1F1CBCFF1F7F
:1048C0006CBDFF1FE4388E3E1088FF1F0000C842F9
:1048D0007C5D01000CBCFF1FCC89FF1F844E0100D2
:1048E000284F0100304F010064BFFF1F7CBBFF1F3A
:1048F000A897FF1F00007A442888FF1FF44E01008C
:10490000004F0100904E0100984E01000C4F010035
:10491000204F01000088FF1F30B5112083B007F041
:104920002BFB012818D0122007F026FB012813D0FA
:1049300000210B2007F01AFB00210C2007F016FBCA
:104940000021152007F012FB2649274B01200022E9
:1049500008701A6003B030BD0121152007F006FB76
:10496000224A234C234B1268D4F88C1001921B6806
:10497000019A1D4D0B4493424FF00201296005D965
:1049800001210C2007F0F2FA03B030BDD4F89400F6
:104990000BF02CFB184B19680BF01AFD0028EFD117
:1049A00001210B2007F0E2FA94F8CC300324012B0C
:1049B0002C600DD0122007F0DFFA012808BF094B48
:1049C0004FF0110008BF1C7007F0D6FA012802D181
:1049D000044B02221A7000210C2007F0C7FA03B022
:1049E00030BD00BF10BCFF1FA097FF1F64BFFF1F9B
:1049F0001CBCFF1F68BBFF1F0CBCFF1FF0B56D4E3A
:104A00006D4D34682B689C4287B03AD014F0010198
:104A100056D014F002014AD014F004013ED0E3074E
:104A20000FD52B68DF070CD4644F3A68002A00F0DA
:104A30009E80634B1B680193019B934200F2898027
:104A40003468A0070DD52B6899070AD45D4F3A68E2
:104A5000002A3ED05A4B1B680393039B93425AD8BB
:104A6000346862070DD52B685B070BD4564F3A6844
:104A7000002A3FD0524B1B680593059B934258D8A0
:104A800034680CB107B0F0BD2146162007F0EEF8EF
:104A90002146172007F0EAF807B0F0BD052007F01F
:104AA000E5F82B68346803F0FB032B60B7E71720A9
:104AB00007F0DCF82B68346803F0FD032B60ABE7EC
:104AC000162007F0D3F82B68346803F0FE032B6040
:104AD0009FE73E4B1B68002B56D1FF21172007F0A4
:104AE000C5F8374B3A4A19680291029912680A448C
:104AF0003A60B0E7354B1B68002B50D1FF210520F1
:104B000007F0B4F82E4B324A1968049104991268E0
:104B10000A443A60AFE72F4B1720D3F8901007F004
:104B2000A5F82B68346843F0020300222B603A603A
:104B300097E7284B0520D3F8901007F097F82B68DB
:104B4000346843F0040300222B603A60002C99D1B2
:104B50009AE7204B1620D3F8901007F087F82B68BF
:104B6000346843F0010300222B603A6069E7FF21BB
:104B7000162007F07BF8124B154A1968009100992E
:104B800012680A443A6055E7134806F065FA0C21AA
:104B9000124809F08BF8104806F05EFA9DE70E48BF
:104BA00006F05AFA0C210E4809F080F80A4806F07F
:104BB00053FAA3E7A097FF1F90BDFF1F14BDFF1F6F
:104BC00064BFFF1F20BDFF1F24BDFF1F0088FF1F04
:104BD0001888FF1F1CBCFF1FCC89FF1F344F01002A
:104BE000444F01002DE9F047534EDFF87081DFF8A4
:104BF00070913068514D00220F2104F0C3FF002353
:104C0000012222214E48C8F80030C9F8002009F0DE
:104C10004DF8D8F80030132B20DC40F6E447336819
:104C2000B5F8A4A0D3F88400436B1C6905F030F8F4
:104C3000A4B2012107FB04F4B4FBF0F4414854444E
:104C4000A5F8A44009F032F8642007F0CBF9D8F8B1
:104C500000300133132BC8F80030E0DDB5F8A43084
:104C6000394A3A48A2FB03129B1A02EB5303C3F3DF
:104C70000F131946A5F8A43006F042FA1D21344856
:104C800009F014F80221334809F010F82F4806F013
:104C9000E3F932680023D2F88400C8F800300E210E
:104CA00005F074FA022322212548C9F8003008F0E3
:104CB000FDFFD8F80030132B20DC40F6E4473368C2
:104CC000B5F8A690D3F88400436B1C6904F0E0FFAC
:104CD000A4B2012107FB04F4B4FBF0F419484C44DE
:104CE000A5F8A64008F0E2FF642007F07BF9D8F8A9
:104CF00000300133132BC8F80030E0DDB5F8A630E2
:104D0000114A1248A2FB03129B1A02EB5303C3F38E
:104D10000F131946A5F8A63006F0F2F91D210E482A
:104D200008F0C4FF02210B4808F0C0FF0748BDE8A7
:104D3000F04706F091B900BFA0BDFF1F1CBCFF1FCC
:104D4000544F0100984F010087611886CC89FF1FDE
:104D5000784F01007C5D01009C4F01007494FF1F9F
:104D60002888FF1FC74B2DE9F0411B68C64CC74E72
:104D700040F2513108222160E271B06D002B40F009
:104D8000C6810BF033F9B16905460BF083F9C049D0
:104D9000BE4F0BF07FF90BF07FFB80B20312637202
:104DA000BC4ABD4B12881B88F1692072A372284649
:104DB0001B121512E372227365730BF06BF9B44981
:104DC000B14D0BF067F90BF067FB83B21A1229465D
:104DD000B248A373E27305F0A9FDB14BB14A1B6859
:104DE0001288A272D8B200EB8001207203EB83001C
:104DF00040F3D71049001B12607340F25530121275
:104E0000217363724FF00808002320602946A348ED
:104E1000E272A373E37384F8078005F087FDD6F888
:104E2000BC3084F8078040F25632072B22609E483F
:104E300000F0728197F8CE30012B00F06D81FDF704
:104E400097FD9A490BF026F90BF026FB287296483D
:104E5000FDF78EFD95490BF01DF90BF01DFBC0F31E
:104E600007206872924B914918680BF0C7F90BF054
:104E7000EDFA021203468C48E272A372FDF79AFD26
:104E800083490BF007F90BF0E1FA20738648FDF730
:104E900091FD7F490BF0FEF80BF0D8FA002540F3A6
:104EA000072379497D486373A573E57305F03EFDDB
:104EB000022007F097F87F4A7F4B51789078177857
:104EC0006172A0725978987892F803E027724FF0D7
:104ED00008081F78DA78617340F25A33A0736A4980
:104EE0006E4884F80BE02773E273236084F8078030
:104EF00005F01CFD714B64491A7858782272607273
:104F00009A78D878A272E0721A7998795F792273C8
:104F1000A073DA796148E27340F25E33236067730D
:104F200084F8078005F002FD022007F05BF8644B6F
:104F300055491A785878227260729A78D878A27295
:104F4000E0721A7998795F792273A073DA795348FD
:104F5000E2734FF45C732360677384F8078005F095
:104F6000E5FC022007F03EF840F273334E48236020
:104F700084F80780FDF7F4FC52490BF08BF80BF036
:104F80008BFA20724848FDF7EBFC4E490BF082F893
:104F90000BF082FAC0F3072343486372FDF7E6FC87
:104FA00048490BF077F80BF077FAA0723E48FDF70E
:104FB000DDFC44490BF06EF80BF06EFAC0F30723EA
:104FC0003948E372FDF750FD3F490AF05BFF0BF0F3
:104FD00063FA20733448FDF747FD3B490AF052FF5E
:104FE0000BF05AFAC0F307232F486373FDF73AFD1D
:104FF00035490AF047FF0BF04FFAA0732A48FDF736
:1050000031FD31490AF03EFF0BF046FA1E49C0F36C
:1050100007232248E37305F089FC022006F0E2FF33
:10502000F16D336E294A84F8078011FB03F312688F
:105030002372C3F307210B2040F27933A27261720D
:10504000236006F099FF07460C2006F095FF064600
:10505000142006F091FF800040EA4606152006F075
:105060008BFF3E431A4B08491B78237376B246EAFE
:10507000C0060A486573E672A573E57305F056FC31
:10508000022027E03097FF1F0C97FF1F1CBCFF1F5B
:105090000000204184BDFF1F2497FF1FACBDFF1FF0
:1050A0001088FF1F1688FF1FA897FF1F0000C84227
:1050B0000CBCFF1F08BCFF1F58BDFF1F3488FF1F1B
:1050C0003C88FF1F00007A443393884390BDFF1F44
:1050D00010BCFF1F06F086FF40F2723318482360B1
:1050E00084F80780FDF73EFC20721548FDF73AFC76
:1050F00040FA08F3A5726372E57225736573A573B0
:10510000E57310491048BDE8F04105F00FBC0AF006
:105110006DFF716A054638E6FDF72AFC0B490AF077
:10512000B9FF0BF0B9F920720548FDF721FC0749DA
:105130000AF0B0FF0BF0B0F9C0F30720607291E6FF
:10514000A897FF1F0C97FF1FACBDFF1F0000204159
:105150002DE9F843CE48CF4CCF4FFEF787F8CF4B21
:10516000B86D1B6840F2513108222160E271002BBA
:1051700040F01E820AF03AFFB96905460AF08AFF3C
:10518000C749C54E0AF086FF0BF086F980B20312BC
:105190006372C44AC44B12881B88F9692072A372D7
:1051A00028461B121512E372227365730AF072FF10
:1051B000BB49B84D0AF06EFF0BF06EF983B21A12BC
:1051C0002946BA48A373E27305F0B0FBB848FEF76E
:1051D0004DF8B84BB84A1B681288A272D8B200EBDF
:1051E0008001207203EB830040F3D71049001B12AB
:1051F000607340F255301212217363722946002306
:105200004FF008082060A948E272A373E37384F8A2
:10521000078005F08BFBA948FEF728F8D7F8BC30CB
:1052200084F8078040F25632072B2260A44800F031
:10523000C48196F8CE30012B00F0BF81FDF798FBBA
:10524000A0490AF027FF0BF027F928729C48FDF7C8
:105250008FFB9C490AF01EFF0BF01EF9C0F30720DC
:105260006872994B97491868DFF88492DFF8848256
:105270000AF0C4FF0BF0EAF8021203469048E2720B
:10528000A372FDF797FB86490AF004FF0BF0DEF8E6
:1052900020738B48FDF78EFB81490AF0FBFE0BF073
:1052A000D5F8002540F307237A4980486373A57336
:1052B000E57305F03BFB8548FDF7D8FF022006F0BB
:1052C00091FE99F8001099F8012099F802302172A6
:1052D00099F803106272A37298F8002098F80130D0
:1052E000E17298F802102273082698F8032063737D
:1052F000A17340F25A3367496C48E2732360E67148
:1053000005F014FB7248FDF7B1FF022006F06AFEBB
:1053100099F8003099F8010098F800E098F8012019
:105320005C492372607240F25933604884F80AE0A5
:10533000E2722360E67125736573A573E57305F06A
:10534000F5FA6448FDF792FF634B52491A78987852
:1053500093F801E02272A072DA78587993F804C0C9
:1053600084F809E0E27293F806E0DA79607340F2BB
:105370005E334E4884F80CC084F80EE0E27323607C
:10538000E67105F0D3FA5548FDF770FF022006F0EC
:1053900029FE534B3F491A78987893F801E022721E
:1053A000A072DA78587993F804C084F809E0E272C0
:1053B00093F806E0DA7960734FF45C733B4884F845
:1053C0000CC084F80EE0E2732360E67105F0AEFADB
:1053D0004448FDF74BFF022006F004FE40F2733311
:1053E00037482360E671FDF7BBFA3F490AF052FEE9
:1053F0000BF052F820723248FDF7B2FA3A490AF03F
:1054000049FE0BF049F8C0F307232D486372FDF7FE
:10541000ADFA35490AF03EFE0BF03EF8A07228487E
:10542000FDF7A4FA30490AF035FE0BF035F8C0F369
:1054300007232348E372FDF717FB2C490AF022FDEE
:105440000BF02AF820731E48FDF70EFB27490AF0DF
:1054500019FD0BF021F8C0F3072319486373FDF71A
:1054600001FB22490AF00EFD0BF016F8A073144858
:10547000FDF7F8FA1D490AF005FD0BF00DF8054996
:10548000C0F307230948E37305F050FA34E000BF86
:10549000BC4F01000C97FF1F1CBCFF1F3097FF1F64
:1054A0000000204184BDFF1F2497FF1FACBDFF1FDC
:1054B000E44F01001088FF1F1688FF1FF04F010006
:1054C000A897FF1F0000C8420CBCFF1FFC4F010043
:1054D00008500100145001003488FF1F20500100C3
:1054E0003C88FF1F2C50010000007A44339388430E
:1054F00008BCFF1F58BDFF1F3A48FDF7B7FE02204A
:1055000006F070FDF96D3B6E374AE67111FB03F34F
:1055100012682372C3F307210B2040F27933A27281
:105520006172236006F028FD80460C2006F024FD01
:105530000746142006F020FD800040EA47071520AA
:1055400006F01AFD47EA0807284B29491B78237300
:105550007FB247EAC00727486573E772A573E57312
:1055600005F0E4F92448FDF781FE022006F03AFD3B
:1055700040F2723321482360E671FDF7F3F920729F
:105580001E48FDF7EFF91A49A57240FA06F31948CB
:105590006372E57225736573A573E57305F0C6F94B
:1055A0001748FDF763FE1748BDE8F843FDF75EBEF8
:1055B0000AF01CFD796A0546E0E5FDF7D9F91249C4
:1055C0000AF068FD0AF068FF20720C48FDF7D0F978
:1055D0000D490AF05FFD0AF05FFFC0F3072060721B
:1055E0003FE600BF3850010090BDFF1F10BCFF1FF9
:1055F0000C97FF1FACBDFF1F44500100A897FF1F71
:10560000505001005C500100000020412DE9F04F96
:105610008F4E904F83B008F0DDFA34683860042C68
:10562000054600F01783092C5ED0022C4CD1A5F161
:105630003103422B53D8DFE813F056056405740597
:10564000D60081059205A105AB055200520052001B
:1056500052005200520052005200520052005200BA
:1056600052005200520052005200520052005200AA
:10567000520052005200520052005200520052009A
:10568000520052005200520052005200520052008A
:105690005200520052005200520052005200430089
:1056A000520052005200520052005200520052006A
:1056B00052005200520052005200640052004B054A
:1056C000FFF790FA34683D68082C40F09D80322D39
:1056D00000F0C983712D14D0312D00F0DB83732DC0
:1056E00013D003B0BDE8F08F5B4C94F8CD30012BA4
:1056F00002D9002384F8CD30312D00F04C83712D78
:10570000EDD10022732332603B603368002BE8D177
:10571000524D534805F0A0FC0421524808F0C6FA47
:105720004F4805F099FC10214F4808F0BFFA4C484B
:1057300005F092FC13214D4808F0B8FA4C4B48484C
:10574000196805F0DDFC464805F086FC142149483F
:1057500008F0ACFA424805F07FFC1E21464808F0EC
:10576000A5FA3F4805F078FC1521444808F09EFA58
:105770003B4805F071FC1E21414808F097FA384873
:1057800005F06AFC20213F4808F090FA344805F003
:1057900063FC19213C4808F089FA314805F05CFCAB
:1057A00012213A4808F082FA2D4805F055FC1921DB
:1057B000374808F07BFA2A4805F04EFC0F2135489F
:1057C00008F074FA264805F047FC0D21324808F02D
:1057D0006DFA234805F040FC002201232A60336063
:1057E00003B0BDE8F08F0123336008F02FFA0028E2
:1057F00007DD1B48184C05F0C5FD0AF0F7FBC4F89F
:105800009C00632534683D60072C4BD1332D01F09B
:10581000A28300F3AB82312D01F08583322D7FF41A
:105820005EAF08F013FA00283ADD0D480A4C05F087
:10583000A9FD0AF0DBFB19490AF02CFC61220123C7
:10584000606415463A6033601C46642AB1E200BFCA
:10585000A4BDFF1F54BBFF1F1CBCFF1F0088FF1F00
:10586000CC89FF1FBC550100C4550100D85501006B
:105870002488FF1FEC550100045601002456010046
:105880003C5601005C560100805601009C56010008
:10589000B0560100CC560100DC5601006F12833A6D
:1058A00034683D68062C40F08D80A5F13103402B13
:1058B0003FF615AF01A252F823F000BFC966000001
:1058C000E964000017650000C1650000376600004C
:1058D0000F66000043670000F966000019670000CA
:1058E000DF560000DF560000DF560000DF560000E4
:1058F000DF560000DF560000DF560000DF560000D4
:10590000DF560000DF560000DF560000DF560000C3
:10591000DF560000DF560000DF560000DF560000B3
:10592000DF560000DF560000DF560000DF560000A3
:10593000DF560000DF560000DF560000DF56000093
:10594000DF560000DF560000DF560000DF56000083
:10595000DF560000DF560000DF560000DF56000073
:10596000DF560000DF560000DF560000DF56000063
:10597000DF560000DF560000DF5600004B660000D7
:1059800079660000A1660000EF650000DF560000A8
:10599000DF560000DF560000DF560000DF56000033
:1059A000DF560000DF560000DF560000DF56000023
:1059B000DF560000DF560000DF56000003570000EE
:1059C00034683D68052C40F08D80A5F13103402BF3
:1059D0003FF685AE01A252F823F000BFEB5E000057
:1059E0001D6000003D6000005D60000087600000F9
:1059F000A3600000BD600000DF560000DF5600001D
:105A0000DF560000DF560000DF560000DF560000C2
:105A1000DF560000DF560000DF560000DF560000B2
:105A2000DF560000DF560000DF560000DF560000A2
:105A3000DF560000DF560000DF560000DF56000092
:105A4000DF560000DF560000DF560000DF56000082
:105A5000DF560000DF560000DF560000DF56000072
:105A6000DF560000DF560000DF560000DF56000062
:105A7000DF560000DF560000DF560000DF56000052
:105A8000DF560000DF560000DF560000DF56000042
:105A9000DF560000DF560000DF560000DF56000032
:105AA000DF560000DF560000DF560000DF56000022
:105AB000DF560000DF560000DF560000DF56000012
:105AC000DF560000DF560000DF560000DF56000002
:105AD000DF560000DF560000DF560000DD5E0000EC
