:1000000000800020BD010000B9B4000071B4000000
:1000100071B4000071B4000071B4000071B400004C
:1000200071B4000071B4000071B40000B9B40000F4
:10003000B9B4000071B400006DDA000071DA00009C
:10004000B9B40000B9B40000B9B40000B9B40000FC
:10005000B9B40000B9B40000B9B40000B9B40000EC
:10006000B9B40000B9B40000B9B40000B9B40000DC
:10007000B9B40000B9B40000B9B40000B9B40000CC
:10008000B9B40000B9B40000B9B40000B9B40000BC
:100090003D980000B9B40000B9B40000B9B4000044
:1000A000B9B40000B9B40000B9B40000B9B400009C
:1000B000B9B4000061AE00006DAE000071AE00008A
:1000C0007DAE000081AE000085AE0000B9B4000036
:1000D000B9B40000B9B40000B9B40000B9B400006C
:1000E000B9B40000B9B40000B9B40000B9B400005C
:1000F000B9B40000B9B40000B9B4000091C3000065
:10010000B9B40000A5CA0000B9B40000B9B4000039
:10011000B9B40000B9B40000B9B40000B9B400002B
:10012000B9B40000B9B40000B9B40000B9B400001B
:10013000B9B40000B9B40000B9B40000B9B400000B
:10014000B9B40000B9B40000B9B40000B9B40000FB
:10015000B9B40000B9B40000B9B40000B9B40000EB
:10016000B9B4000095CD0000B9B40000B9B40000E6
:10017000B9B40000B9B40000B9B40000B9B40000CB
:10018000B9B40000B9B40000B9B40000B9B40000BB
:10019000B9B40000B9B40000B9B40000B9B40000AB
:1001A000B9B40000B9B40000B9B40000B9B400009B
:1001B000B9B40000B9B40000B9B40000564B4CF219
:1001C000205210B51A804DF628121A8000BF00BFC9
:1001D0000BF076F9514B4FF010621A60504A9A605A
:1001E000504ADA60504A136813F4807304D14F49BF
:1001F0000B604FF4A85313604D4B1A78110703D5C9
:100200001A7842F008021A704A4B4B492A221A7097
:100210004A4A4B4B8B4204D252F8040F43F8040B6A
:10022000F8E7484B484900228B4202D243F8042B9E
:10023000FAE74649464A002352F8230041F82300D2
:1002400001336F2BF8D1434B434A802103F8011B44
:100250009342FBD1414B3D4A1A60414B8A221A70AE
:10026000A3F5805324225A70A0221A709A7992071B
:10027000FCD59A79D406FCD43A4A937903F00C035E
:10028000082B384BF9D103221A7140225A719A79FE
:100290009006FCD5334A9179324B4906FBD5324A58
:1002A000324911600221516020221A709A7902F0BD
:1002B0000C020C2AFAD12E4B2E4A1A602E4B2F4AD2
:1002C0001A6000225A60072243F8042C2C4AC3F813
:1002D0000C2D62B60BF020FA144B1B68DA0705D51B
:1002E00028480BF005FA284B284A1A60284B1B783F
:1002F0005B0609D5244C254B22689A4204D121483B
:100300000BF0F6F9002323600BF0E0F810F0B2FBDD
:100310000DF0C0FEFEE700BF0E2005403080044017
:10032000823F04000100002B10D0034014D0034092
:1003300002D0074000E007403894FF1FC468010066
:100340002087FF1F3894FF1F34BFFF1F0082FF1F4D
:100350000000000000E400E05FE400E008ED00E0E1
:100360000050064000400640448004400000030165
:1003700004800440C010050014E000E0FF76010096
:1003800000002020913997631CE00340A5C3945AD4
:1003900000F00740FFFFFFFFFFFFFFFFFFFFFFFF32
:1003A000FFFFFFFFFFFFFFFFFFFFFFFFFFFFFFFF5D
:1003B000FFFFFFFFFFFFFFFFFFFFFFFFFFFFFFFF4D
:1003C000FFFFFFFFFFFFFFFFFFFFFFFFFFFFFFFF3D
:1003D000FFFFFFFFFFFFFFFFFFFFFFFFFFFFFFFF2D
:1003E000FFFFFFFFFFFFFFFFFFFFFFFFFFFFFFFF1D
:1003F000FFFFFFFFFFFFFFFFFFFFFFFFFFFFFFFF0D
:10040000FFFFFFFFFFFFFFFFFFFFFFFFDEF9FFFF23
:1004100010B5054C237833B9044B13B10448AFF33E
:1004200000800123237010BD3894FF1F00000000DE
:10043000C0680100084B10B51BB108490848AFF36C
:1004400000800848036803B910BD074B002BFBD0A0
:10045000BDE81040184700BF000000003C94FF1F9B
:10046000C06801003894FF1F00000000F0B400F1E4
:1004700014060F4F00243146031F00F12C0243F8ED
:10048000044FB34241F8047F4FF0000542F8044F97
:10049000F5D1084B084985640022C56405654565AA
:1004A000456683650366C16580F88420F0BC7047AB
:1004B0000000A040000048430000C8C200230360C1
:1004C00043608360C3600361436183640365436584
:1004D000704700BF2DE9F04190F8844084B00023BC
:1004E00064008DF80530E4B2012380468DF80440A5
:1004F0008DF80630032720460CF004FA02210DF196
:1005000005000CF009FA8DF8044002F0B5FD30B397
:100510000921C9480DF084F9002310222146C7485B
:100520000DF032FC0121C6480DF07AF900231022AB
:100530009DF80510C1480DF027FC0121C0480DF0C1
:100540006FF9002310229DF80610BC480DF01CFC2A
:100550000121BB480DF064F9B8480DF001FC022000
:100560008DF804400BF010FB02F086FD002840F0EF
:10057000778102AE00240CF009FA002800F02681F1
:10058000042C40F0158101E00CF014FA0CF0FEF997
:100590000028F9D102F070FD10B1A8480DF0E0FB81
:1005A00098F884406400E4B2202204238DF80440CB
:1005B0008DF805208DF80630032720460CF0A2F9AF
:1005C00002210DF105000CF0A7F98DF8044002F0AE
:1005D00053FD30B3092198480DF022F90023102271
:1005E000214696480DF0D0FB012195480DF018F9F1
:1005F000002310229DF8051090480DF0C5FB012145
:100600008F480DF00DF9002310229DF806108B483D
:100610000DF0BAFB01218A480DF002F987480DF070
:100620009FFB02208DF804400BF0AEFA02F024FD8F
:10063000002840F00B8102AE00240CF0A7F900283E
:1006400000F0A980072C40F0988001E00CF0B2F98E
:100650000CF09CF90028F9D102F00EFD10B177489A
:100660000DF07EFB98F884409DF80B209DF80C302F
:100670009DF80D00C8F870206400E4B29DF80E10DB
:10068000C8F87430332201238DF80440C8F878008C
:10069000C8F87C108DF805208DF806300327204619
:1006A0000CF030F902210DF105000CF035F98DF850
:1006B000044002F0E1FC30B309215F480DF0B0F8CE
:1006C0000023102221465D480DF05EFB01215C48AD
:1006D0000DF0A6F8002310229DF8051057480DF0E4
:1006E00053FB012156480DF09BF8002310229DF882
:1006F000061052480DF048FB012151480DF090F8CA
:100700004E480DF02DFB02208DF804400BF03CFA12
:1007100002F0B2FC002840F09E8002AE00240CF0F3
:1007200035F9F8B1042C0FD101E00CF043F90CF0CD
:100730002DF90028F9D102F09FFC10B13F480DF0CF
:100740000FFB04B0BDE8F0810CF034F9054606F863
:10075000010B02F091FC00285AD101340CF016F97B
:100760000028DFD1042CE2D002F086FC00285ED104
:10077000013FE6D09DF8044091E70CF01BF90546D7
:1007800006F8010B02F078FC60BB01340CF0FEF8B7
:1007900000287FF457AF072C3FF45AAF02F06CFCEF
:1007A00000284FD1013F3FF45DAF9DF8044004E7BE
:1007B0000CF000F9054606F8010B02F05DFCE0B90B
:1007C00001340CF0E3F800287FF4DAAE042C3FF497
:1007D000DDAE02F051FC30BB013F3FF4E1AE9DF8CD
:1007E000044088E6E9B20023102214480DF0CCFA48
:1007F000012113480DF014F8C7E7E9B200231022D5
:100800000E480DF0C1FA01210D480DF009F8D7E7A7
:10081000E9B20023102209480DF0B6FA0121084878
:100820000CF0FEFF99E705480DF09AFAD4E703486B
:100830000DF096FA9CE700BF00490100D489FF1F24
:10084000205E010009480DF08BFAABE7072108484C
:100850000CF0E6FFEFE6072105480CF0E1FF5CE74E
:10086000072103480CF0DCFF83E600BFD489FF1F9B
:100870000C49010090F87400704700BF90F87000B8
:10088000704700BF90F87800704700BF90F87C0078
:10089000704700BF2DE9F04390F8848085B04FEA9F
:1008A00048085FFA88F8322200238DF804808DF81A
:1008B00005208DF8063003250DF1060748F00109E3
:1008C00048460CF01FF801AE0DF1050002210CF0B6
:1008D00023F88DF804904A463346002050400824FF
:1008E00010F0800F4FEA400018BF80F00700013C75
:1008F000C0B2F5D1BB4202D013F8012FEEE70CF0E5
:1009000001F802F0B9FB00284AD102208DF80480DA
:100910000BF03AF902F0B0FB002840F081800DF1B5
:10092000080800240CF032F808B3042C12D101E0BE
:100930000CF040F80CF02AF80028F9D102F09CFBEA
:1009400010B13A480DF00CFA02200BF01DF905B079
:10095000BDE8F0830CF02EF808F8010B064602F013
:100960008BFB70B901340CF011F80028DDD1042C98
:10097000E0D002F081FB78B9013DE5D09DF804801C
:100980009CE7F1B20023102228480DF0FDF9012167
:1009900027480CF045FFE5E724480DF0E1F9EBE7C7
:1009A000092124480CF03CFF2346102249461F48E9
:1009B0000DF0EAF901211E480CF032FF2346102207
:1009C0009DF8051019480DF0DFF9012118480CF0C9
:1009D00027FF102223469DF8061014480DF0D4F985
:1009E000012113480CF01CFF21460DF1070216F8F7
:1009F000014B6140C9B2082311F0800F4FEA410159
:100A000018BF81F00701013BC9B2F5D1B242EED166
:100A1000102206480DF0B8F904480DF0A1F974E76A
:100A2000072105480CF0FCFE79E700BFD489FF1FC1
:100A3000205E0100004901000C4901002DE9F04F42
:100A4000074691B097F8843002205B008DF808309B
:100A50000BF09AF897F8843038465B008DF8083030
:100A6000FFF738FDB86FFC6F7B6F3A6F97F8841013
:100A70008DE81100C94802F005FC30223D238DF8B5
:100A800009208DF80A3003260DF10A059DF808901B
:100A900049F0010840460BF035FF0DF10900022135
:100AA0000BF03AFF8DF80880424602AB0020504020
:100AB000082410F0800F4FEA400018BF80F00700B4
:100AC000013CC0B2F5D1AB4202D013F8012FEEE7E2
:100AD0000BF018FF02F0D0FA002840F07D820220CF
:100AE0008DF808900BF050F802F0C6FA002840F09C
:100AF000B9820DF10C0AD14600240BF047FF002803
:100B000043D0032C34D101E00BF054FF0BF03EFF37
:100B10000028F9D102F0B0FA10B1A1480DF020F987
:100B2000312303268DF809308DF80A609DF808906E
:100B300049F0010840460BF0E5FE0DF109000221E5
:100B40000BF0EAFE8DF80880424602AB00205040D0
:100B5000082410F0800F4FEA400018BF80F0070013
:100B6000013CC0B2F5D19D4228D013F8012FEEE729
:100B70000BF020FF09F8010B804602F07DFA68B9FE
:100B800001340BF003FF0028BBD1032CBED002F0D0
:100B900073FA78B9013E7FF479AFC1E75FFA88F163
:100BA000002310227E480DF0EFF801217D480CF063
:100BB00037FEE5E77A480DF0D3F8EBE70BF0A2FE3D
:100BC00002F05AFA002840F0C68102208DF8089001
:100BD0000AF0DAFF02F050FA002840F03E820DF1F0
:100BE0000C0900240BF0D2FE002844D0032C35D190
:100BF00001E00BF0DFFE0BF0C9FE0028F9D102F096
:100C00003BFA10B166480DF0ABF8342201238DF8A1
:100C100009208DF80A3003269DF8089049F0010854
:100C200040460BF06FFE0DF1090002210BF074FE3F
:100C30008DF80880424602AB00205040082410F096
:100C4000800F4FEA400018BF80F00700013CC0B29F
:100C5000F5D1AB4228D013F8012FEEE70BF0AAFE36
:100C600009F8010B804602F007FA68B901340BF06D
:100C70008DFE0028BAD1032CBDD002F0FDF978B961
:100C8000013E7FF453AFC0E75FFA88F100231022E2
:100C900043480DF079F8012142480CF0C1FDE5E729
:100CA0003F480DF05DF8EBE70BF02CFE02F0E4F9A5
:100CB000002840F00F8102208DF808900AF064FFB0
:100CC00002F0DAF9002840F0D7810DF10C09002478
:100CD0000BF05CFE002800F08580032C73D101E04E
:100CE0000BF068FE0BF052FE0028F9D102F0C4F9B7
:100CF00010B12B480DF034F8012212238DF8092091
:100D00008DF80A304FF003089DF8084020460BF09C
:100D1000F9FD02210DF109000BF0FEFD8DF80840F0
:100D200002F0AAF930B309211F480CF079FD002325
:100D3000102221461A480DF027F8012119480CF01D
:100D40006FFD002310229DF8091015480DF01CF8C6
:100D5000012114480CF064FD002310229DF80A10B4
:100D60000F480DF011F801210E480CF059FD0C4808
:100D70000CF0F6FF06208DF808400AF005FF02F09F
:100D80007BF9002840F0738103AD00260BF0FEFDD7
:100D9000002840D0162E30D10AE000BF14490100CF
:100DA000D489FF1F205E0100004901000BF002FE04
:100DB0000BF0ECFD0028F9D102F05EF916260028B0
:100DC0007DD1152035E00BF0F5FD09F8010B8046CB
:100DD00002F052F900285BD101340BF0D7FD002856
:100DE0007FF47BAF032C3FF47DAF02F045F9002880
:100DF0006CD1013E7FF410AF7EE70BF0DBFD05F810
:100E0000010B044602F038F900284DD101360BF0F1
:100E1000BDFD0028BED1162ECAD002F02DF9002843
:100E20004DD1B8F101087FF46FAF701E002840F378
:100E30003582002303AA1C4612F8011B08254C40EA
:100E400014F0800F4FEA440418BF84F00704013DFA
:100E5000E4B2F5D101338342EEDB9DF8218089486D
:100E60004146224602F00EFA162EC146A34602D192
:100E7000A04500F0138197F884108348CDF800B0A6
:100E80004B46324602F02CFA002011B0BDE8F08F3C
:100E90005FFA88F1002310227C480CF075FF0121D5
:100EA0007B480CF0BDFC97E7E1B2002310227748A5
:100EB0000CF06AFF012176480CF0B2FCA6E77348FB
:100EC0000CF04EFF162EACD11520B2E76F480CF097
:100ED00047FF8EE709216F480CF0A2FC2346102241
:100EE00041466A480CF050FF012169480CF098FC1B
:100EF000234610229DF8091064480CF045FF01219B
:100F000063480CF08DFC102223469DF80A105F48C0
:100F10000CF03AFF01215E480CF082FC21460DF1F5
:100F20000B0002AA12F8014B6140C9B2082311F06C
:100F3000800F4FEA410118BF81F00701013BC9B2A0
:100F4000F5D19042EED1102250480CF01DFF4F48D1
:100F50000CF006FFAFE609214E480CF061FC234679
:100F60001022414649480CF00FFF012148480CF07F
:100F700057FC234610229DF8091044480CF004FF4A
:100F8000012143480CF04CFC102223469DF80A1026
:100F90003E480CF0F9FE01213D480CF041FC214691
:100FA0000DF10B0002AA12F8014B6140C9B20823EF
:100FB00011F0800F4FEA410118BF81F00701013B9A
:100FC000C9B2F5D19042EED1102230480CF0DCFECF
:100FD0002E480CF0C5FEF8E509212E480CF020FC47
:100FE00023461022414629480CF0CEFE0121284814
:100FF0000CF016FC234610229DF8091023480CF033
:10100000C3FE012122480CF00BFC102223469DF860
:101010000A101E480CF0B8FE01211D480CF000FC1F
:1010200021460DF10B0002AA12F8014B6140C9B232
:10103000082311F0800F4FEA410118BF81F007012A
:10104000013BC9B2F5D19042EED110220F480CF00D
:101050009BFE0E480CF084FE41E507210E480CF083
:10106000DFFBBCE507210C480CF0DAFB41E507216A
:1010700009480CF0D5FB87E6072107480CF0D0FBA8
:1010800023E600BF4849010094490100D489FF1FAD
:10109000205E0100004901000C4901009DF80C3060
:1010A00097F88420B3EB420F7FF4EEAE9DF80D303D
:1010B000012B7FF4E9AE9DF80E30122B7FF4E4AEE5
:1010C0009DF810309DF80F0003EB00200FF0CAF8D8
:1010D0008B490FF01BF9796EF86404460FF0D2FAD1
:1010E00000B17C66396E20460FF0AEFA00B13C6666
:1010F0003D1FAB4607F1180807F130064FF0000915
:101100009AF806309AF8050003EB00200FF0AAF8D1
:101110007C490FF0FBF84BF8040FD8F80010044698
:101120000FF092FA09F101090AF1020A30B1B96E21
:1011300020460FF09DFA08B1C8F8004031682046FB
:101140000FF0A0FA08F1040800B13460B9F1060FFD
:1011500006F10406D4D10020B86407F1140455F850
:10116000041F0EF0CBFFAC42F9D19DF81D209DF875
:101170001E30B86403EB022002300FF073F86249AE
:101180000FF078F9014661480FF074F960490EF0EC
:10119000B3FF60490FF0BAF805460DF025F9044693
:1011A00028460DF021F95C490DF090F95B490546A0
:1011B00020460FF0ABF85A490EF0A0FF59490446FB
:1011C00028460FF0A3F8014620460EF097FF01468F
:1011D0004FF07E500FF04EF953490EF08DFF9DF801
:1011E0001F209DF82030386503EB022009300FF0F6
:1011F00039F84E490FF03EF9014644480FF03AF9EC
:1012000043490EF079FF43490FF080F805460DF091
:10121000EBF8044628460DF0E7F83F490DF056F983
:101220003E49054620460FF071F83D490EF066FF35
:101230003C49044628460FF069F8014620460EF066
:101240005DFF01464FF07E500FF014F936490EF065
:1012500053FFD7F8808078650446B8F1000F3BD182
:101260003D6D29462E460FF00DFA68B32946B86D3C
:101270000FF008FAE0B1BD65B8F1000F17D008F122
:10128000130657F82640F96D20460FF0FBF900B120
:10129000FC65274801F0F6FF0120F6E59DF8219056
:1012A000244849464246C34601F0ECFFE3E53E6D63
:1012B000314620460FF0E6F9C8B1F96D20460FF02F
:1012C000E1F90028E4D1E4E7B96D20460FF0BCF95C
:1012D0000028EDD02546CEE708F11306B96D57F882
:1012E000265028460FF0B0F90028C4D1C9E731468E
:1012F000F86D0FF0A9F90028CBD03446C8E700BF3D
:101300006B57053B2003C839001601470AD7E33F56
:10131000E17A644000007A4400004040A40D8F3917
:101320005A80473A46A6DB3333938843002C014763
:101330006C49010048490100052994BF50F821007B
:10134000002070472DE9F0410B4E8046041F00F14C
:10135000140754F8045F314628460FF075F930B190
:10136000D8F8681028460FF08DF900B12E46BC421F
:10137000EFD13046BDE8F08100002041F8B50027EC
:10138000041F00F1140654F8045F394628460FF094
:1013900079F9054920B128460FF056F900B12F46DA
:1013A000B442F0D13846F8BD000090402DE9F04736
:1013B000876E80464FF0000A041F00F114064FF0BC
:1013C000000954F8045F394628460FF05BF91449C8
:1013D00050B128460FF038F930B1504629460EF08A
:1013E0008DFE09F101098246B442EAD1D8F888306D
:1013F000994511D0D8F88C30022BD6BF0133C8F8EC
:101400008890C8F88C3048460EF02CFF01465046B4
:101410000FF030F8BDE8F0870023C8F88C30F2E711
:1014200000007042D0F88800704700BF38B5D0F88F
:10143000803043B9456D046D294620460FF004F90C
:1014400030B1204638BD133350F82340204638BD14
:101450002C46204638BD00BF38B5D0F8803043B99F
:10146000446D056D214628460FF0EEF830B1204658
:1014700038BD133350F82340204638BD2C46204653
:1014800038BD00BF08B5D0F880301BB1133350F819
:10149000230008BD416D006D0EF030FE4FF07C5111
:1014A0000EF034FF08BD00BF806C704701299ABF61
:1014B000143150F821000020704700BF3E2998BF2A
:1014C00080F88410704700BF90F86C00704700BF30
:1014D000C0F88010704700BF80F86C10704700BFE4
:1014E0008166704770B500F50E550646183500F157
:1014F000280420469034FEF7B9FFAC42F9D106F13A
:10150000B805012428460021FFF7E6FF21462846BA
:101510000134FFF7D3FF3F2C05F19005F2D142F2E1
:10152000A03400250548064A064B35550021306198
:101530007161B261F361304670BD00BF00007A4452
:10154000000048430000C8C238B500F50E551835F4
:1015500000F1B80402E09034AC420AD02046FFF714
:10156000B3FF0028F7D020469034FEF7A7FFAC4227
:10157000F4D138BD2DE9F04142F2A43300F50E5606
:10158000374600228046C2501836243700F1B8048E
:1015900002E09034B4420DD02046FFF795FF0028BA
:1015A000F7D020463D68FFF73DFF90342844B44211
:1015B0003860F1D142F2A43358F80300BDE8F0815D
:1015C0002DE9F04F93B0814642F2A83310460192C4
:1015D00001284FF00002069149F8032000F0038231
:1015E00009F50E532833079309F1B80A4FF0010BA0
:1015F0005046FFF769FFC0B1002634460125314649
:101600005046D9F80870FFF797FE014638460FF0AC
:101610001BF818B105FA06F31C43E4B20136062E96
:10162000EDD1019B012B0AD0F4B90BF1010BBBF1F9
:101630003F0F0AF1900ADBD113B0BDE8F08F594695
:10164000BD480CF0E1FB0321BC480CF0E9F8214651
:1016500000230222B8480CF097FB0321B8480CF095
:10166000DFF8002C00F018814FEA4B03DBB219467B
:10167000029343F001039DF8182003931D4618467A
:1016800033238DF826208DF825308DF824100BF0AB
:1016900039F90DF1250002210BF03EF909AA059256
:1016A0008DF824502A4609AB0DF126060020504043
:1016B000082510F0800F4FEA400018BF80F00700A7
:1016C000013DC0B2F5D19E4202D013F8012FEEE7E2
:1016D0000BF018F901F0D0FC002840F0EC809DF8E8
:1016E00008308DF8243002200AF04EFA01F0C4FCD4
:1016F000002840F06E810AAB04931F4600250BF0D2
:1017000045F9002844D01E2D35D101E00BF052F9E7
:101710000BF03CF90028F9D101F0AEFC00283DD1D6
:10172000019B012B40D0039D9DF808208DF82420BB
:10173000322328468DF825308DF826400BF0E2F84C
:101740000DF1250002210BF0E7F88DF8245009ABCC
:101750002A4600205040082510F0800F4FEA400034
:1017600018BF80F00700013DC0B2F5D19E423BD0CA
:1017700013F8012FEEE70BF01DF907F8010B804677
:1017800001F07AFC20BB01350BF000F90028BAD13A
:101790001E2DBDD001F070FC0028C1D066480CF0B1
:1017A000DFFA019B012BBED1049D0BAF15F8011B85
:1017B0006148002310220CF0E7FA012161480CF087
:1017C0002FF8AF42F2D103215D480CF029F8AAE7C7
:1017D0005FFA88F10023102257480CF0D5FA012156
:1017E00059480CF01DF8CEE70BF08CF801F044FCE2
:1017F000002840F0AD809DF808308DF8243002209C
:101800000AF0C2F901F038FC002840F0E780049E9D
:1018100000250BF0BBF800B31E2D11D101E00BF039
:10182000C9F80BF0B3F80028F9D101F025FCD0B9C4
:10183000019B012B1DD0079A13681C441460F4E629
:101840000BF0B8F806F8010B074601F015FC38BBA1
:1018500001350BF09BF80028DED11E2DE1D001F000
:101860000BFC0028E4D034480CF07AFA019B012BE1
:10187000E1D1049E0BAD16F8011B2F480023102266
:101880000CF082FA01212F480BF0CAFFAE42F2D1D0
:10189000079A13682344136027480CF061FAC4E6E2
:1018A000F9B20023102224480CF06EFA01212648D8
:1018B0000BF0B6FFCCE7092124480BF0B1FF2B4613
:1018C000102203991C480CF05FFA01211E480BF00E
:1018D000A7FF2B4610229DF8251017480CF054FA4C
:1018E000012119480BF09CFF10222B469DF8261071
:1018F00011480CF049FA012113480BF091FF2946D9
:101900000DF1270009AA12F8013B5940C9B208237A
:1019100011F0800F4FEA410118BF81F00701013B30
:10192000C9B2F5D19042EED1102203480CF02CFA46
:1019300001480CF015FAD2E6D489FF1FE4490100F2
:10194000E8490100EC490100205E01000049010066
:10195000092127480BF064FF2B46102203992548E4
:101960000CF012FA012124480BF05AFF2B461022EA
:101970009DF825101F480CF007FA01211E480BF0B6
:101980004FFF10222B469DF826101A480CF0FCF948
:10199000012119480BF044FF059829460DF1270253
:1019A00010F8013B5940C9B2082311F0800F4FEAEB
:1019B000410118BF81F00701013BC9B2F5D1824254
:1019C000EED110220B480CF0DFF90A480CF0C8F9F0
:1019D00011E7072109480BF023FF8CE60721074890
:1019E0000BF01EFF13E703480CF0BAF9F8E500BF4F
:1019F00000490100D489FF1F205E01000C4901004D
:101A00002DE9F04F824685B04FF0000901238DF893
:101A100000908DF801908DF802304FF003080024FB
:101A200020460AF06FFF02210DF101000AF074FF59
:101A30008DF8004001F020FB30B30921B5480BF0D0
:101A4000EFFE002310222146B3480CF09DF901213E
:101A5000B2480BF0E5FE002310229DF80110AE48BD
:101A60000CF092F90121AD480BF0DAFE00231022B0
:101A70009DF80210A8480CF087F90121A7480BF047
:101A8000CFFEA5480CF06CF902208DF800400AF05A
:101A90007BF801F0F1FA002840F0898001AF3E4662
:101AA00000240AF073FF002867D0042C58D101E00D
:101AB0000AF080FF0AF06AFF0028F9D101F0DCFA91
:101AC00010B195480CF04CF99DF80430802B40F093
:101AD0001E819DF80530002B40F019819DF80640CD
:101AE000012C40F014818E4801F0CCFB0AF1B806BD
:101AF000254604E001353F2D06F1900686D030469C
:101B0000FFF7E2FC83460028F4D13B2265F07F0317
:101B100001208DF801208DF802308DF800B00AF018
:101B2000F1FE0DF1010002210AF0F6FE01228DF80E
:101B30000020E84658466B460DF102026040C0B2F4
:101B4000082410F0800F4FEA400018BF80F0070013
:101B5000013CC0B2F5D193422ED013F8014FEDE70E
:101B60000AF028FF06F8010B054601F085FA98B93E
:101B700001340AF00BFF002897D1042C9AD001F011
:101B80007BFA10B164480CF0EBF8B8F1010800F0F2
:101B9000BE809DF8004043E7E9B2002310225E4872
:101BA0000CF0F2F801215D480BF03AFEE0E7072166
:101BB0005C480BF035FE71E70AF0A4FE01F05CFA18
:101BC00000285AD103208DF8009009F0DDFF01F0C4
:101BD00053FA002840F0968000240AF0D7FEB0B3F4
:101BE0000A2C27D101E00AF0E5FE0AF0CFFE00281A
:101BF000F9D101F041FA00287FD19DF80430812B02
:101C00007FF404AF9DF805303B2B7FF4FFAE9DF8C9
:101C100006308035AB427FF4F9AE30460121FFF744
:101C20005BFC0AF50E534048DA690132DA6101F0D3
:101C300029FBEBE60AF0BEFE07F8010B804601F037
:101C40001BFA70B901340AF0A1FE0028C8D10A2C91
:101C5000CBD001F011FA002850D1022C7FF7D6AE7C
:101C6000CBE75FFA88F1002310222B480CF08CF8A8
:101C700001212A480BF0D4FDE4E7092125480BF0A7
:101C8000CFFD23461022012123480CF07DF80121CD
:101C900022480BF0C5FD234610229DF801101E4876
:101CA0000CF072F801211D480BF0BAFD10222346FA
:101CB0009DF8021018480CF067F8012117480BF046
:101CC000AFFD21460DF1030218F8014B6140C9B286
:101CD000082311F0800F4FEA410118BF81F007017E
:101CE000013BC9B2F5D14245EED110220A480CF0B1
:101CF0004BF809480CF034F864E70A2406480CF065
:101D00002FF8AAE7072107480BF08AFD64E705B022
:101D1000BDE8F08F00490100D489FF1F205E01005B
:101D2000F04901000C490100FC4901002DE9F04790
:101D300042F29C3284B000230127835082468DF802
:101D400004308DF8053000F1B8088DF806704FEAC0
:101D500047095FFA89F400214046FFF7BDFB2046A2
:101D60008DF804400AF0CEFD02210DF105000AF0C5
:101D7000D3FD8DF8044001F07FF930B309214948C3
:101D80000BF04EFD00231022214647480BF0FCFFCC
:101D9000012146480BF044FD002310229DF8051058
:101DA00041480BF0F1FF012140480BF039FD0023C1
:101DB00010229DF806103C480BF0E6FF01213B483D
:101DC0000BF02EFD38480BF0CBFF14208DF80440AB
:101DD00009F0DAFE01F050F900285DD102AE0024CE
:101DE0000AF0D4FD40B3082C19D101E00AF0E2FD5D
:101DF0000AF0CCFD0028F9D101F03EF9002846D1C7
:101E00009DF808304B4522D00137052009F0BCFE73
:101E10003F2F08F190089AD104B0BDE8F0870AF08E
:101E2000C9FD054606F8010B01F026F920BB013477
:101E30000AF0ACFD0028D6D1082CD9D001F01CF94D
:101E400030BB042CE0DD9DF808304B45DCD19DF81B
:101E50000930002BD8D19DF80A100129D4D19DF862
:101E60000C30002BD0D04046FFF736FB0AF50E535E
:101E7000DA690132DA61C7E7E9B2002310220A48C1
:101E80000BF082FF012109480BF0CAFCCFE70824C0
:101E900005480BF065FFD4E7072105480BF0C0FCAF
:101EA0009CE700BF00490100D489FF1F205E0100AC
:101EB0000C4901002DE9F04700F50E56354684B077
:101EC000804618361C3500F1B80400272046002152
:101ED0009034FFF701FBB4422F60F7D102270DF1D8
:101EE00006064FF07F093C22A5237E217F208DF836
:101EF00005208DF806308DF8041001AD0AF002FDC2
:101F00000DF1050002210AF007FD8DF804902B4623
:101F10007F2200205040082410F0800F4FEA40003C
:101F200018BF80F00700013CC0B2F5D1B34202D027
:101F300013F8012FEEE70AF0E5FC01F09DF8002808
:101F40005AD17E2364208DF8043009F01DFE01F083
:101F500093F8002840F090800DF1080A00240AF060
:101F600015FD20B3082C15D101E00AF023FD0AF07D
:101F70000DFD0028F9D101F07FF8F0B99DF8083087
:101F80007F2B21D0013FAED14046FFF739FD04B091
:101F9000BDE8F0870AF00EFD05460AF8010B01F0D6
:101FA0006BF8F0B901340AF0F1FC0028DAD1082C02
:101FB000DDD001F061F80028E0D032480BF0D0FE0F
:101FC0009DF808307F2BDDD19DF809303C2BD9D10D
:101FD0009DF80A30A52BD5D19DF80B30572BD1D1C8
:101FE000D2E7E9B20023102226480BF0CDFE0121F2
:101FF00025480BF015FCD5E7092124480BF010FC0F
:10200000234610227F211F480BF0BEFE01211E48EF
:102010000BF006FC234610229DF8051019480BF022
:10202000B3FE012118480BF0FBFB102223469DF85C
:10203000061014480BF0A8FE012113480BF0F0FB2A
:1020400021460DF1070215F8014B6140C9B2082382
:1020500011F0800F4FEA410118BF81F00701013BE9
:10206000C9B2F5D1AA42EED1102206480BF08CFE7F
:1020700004480BF075FE64E7072105480BF0D0FB20
:102080006AE700BFD489FF1F205E010000490100FC
:102090000C4901002DE9F04385B04FF07F08202264
:1020A000FF2381468DF804808DF805208DF80630D9
:1020B00003260DF1060548F0010738460AF022FC18
:1020C0000DF1050002210AF027FC8DF804703A4654
:1020D00001AB00205040082410F0800F4FEA400070
:1020E00018BF80F00700013CC0B2F5D1AB4202D06E
:1020F00013F8012FEEE70AF005FC00F0BDFF002801
:1021000040F0768202208DF8048009F03DFD00F059
:10211000B3FF002840F0B2820DF1080800240AF055
:1021200035FC002843D0042C34D101E00AF042FCF5
:102130000AF02CFC0028F9D100F09EFF10B1C14834
:102140000BF00EFE4FF07F0800238DF804808DF811
:102150000630032648F0010738460AF0D3FB0DF19C
:10216000050002210AF0D8FB8DF804703A4601AB55
:1021700000205040082410F0800F4FEA400018BFA4
:1021800080F00700013CC0B2F5D1AB4228D013F873
:10219000012FEEE70AF00EFC08F8010B074600F0ED
:1021A0006BFF70B901340AF0F1FB0028BBD1042C9D
:1021B000BED000F061FF78B9013EC3D09DF8048025
:1021C00079E7F9B2002310229E480BF0DDFD0121D2
:1021D0009D480BF025FBE5E79A480BF0C1FDEBE7C6
:1021E0000AF090FB00F048FF002840F0C081022078
:1021F0008DF8048009F0C8FC00F03EFF002840F094
:1022000038820DF1080800240AF0C0FB002846D0EF
:10221000042C37D101E00AF0CDFB0AF0B7FB00280F
:10222000F9D100F029FF10B186480BF099FD4FF06D
:102230007F082122FF238DF804808DF805208DF87A
:102240000630032648F0010738460AF05BFB0DF123
:10225000050002210AF060FB8DF804703A4601ABDC
:1022600000205040082410F0800F4FEA400018BFB3
:1022700080F00700013CC0B2F5D19D4228D013F890
:10228000012FEEE70AF096FB08F8010B074600F075
:10229000F3FE70B901340AF079FB0028B8D1042CA0
:1022A000BBD000F0E9FE78B9013EC0D09DF80480B3
:1022B00050E7F9B20023102262480BF065FD0121BE
:1022C00061480BF0ADFAE5E75E480BF049FDEBE73E
:1022D0000AF018FB00F0D0FE002840F00781022031
:1022E0008DF8048009F050FC00F0C6FE002840F094
:1022F000CF810DF1080800240AF048FB002843D0E4
:10230000042C34D101E00AF055FB0AF03FFB002811
:10231000F9D100F0B1FE10B14A480BF021FD4FF0A9
:102320007F0800238DF804808DF80630032648F0DE
:10233000010738460AF0E6FA0DF1050002210AF01D
:10234000EBFA8DF804703A4601AB002050400824A7
:1023500010F0800F4FEA400018BF80F00700013CEA
:10236000C0B2F5D19D4228D013F8012FEEE70AF054
:1023700021FB08F8010B074600F07EFE70B901341E
:102380000AF004FB0028BBD1042CBED000F074FE80
:1023900078B9013EC3D09DF8048053E7F9B2002319
:1023A000102228480BF0F0FC012127480BF038FAE6
:1023B000E5E724480BF0D4FCEBE70AF0A3FA00F0C1
:1023C0005BFE002851D102208DF8048009F0DCFB6F
:1023D00000F052FE002840F056810DF1080800245C
:1023E0000AF0D4FA18B3042C14D101E00AF0E2FA8E
:1023F0000AF0CCFA0028F9D100F03EFE10B11148E5
:102400000BF0AEFC42F2A033002209F8032005B025
:10241000BDE8F0830AF0CEFA08F8010B074600F099
:102420002BFE98B901340AF0B1FA0028DBD1042C54
:10243000DED000F021FEA0B9013EE3D09DF804807B
:1024400075E700BFD489FF1F205E0100F9B20023A9
:10245000102292480BF098FC012191480BF0E0F912
:10246000E0E78E480BF07CFCE6E709218D480BF095
:10247000D7F923461022394688480BF085FC012104
:1024800087480BF0CDF9234610229DF805108348AC
:102490000BF07AFC012182480BF0C2F9102223468E
:1024A0009DF806107D480BF06FFC01217C480BF075
:1024B000B7F921460DF1070001AA12F8014B61405E
:1024C000C9B2082311F0800F4FEA410118BF81F013
:1024D0000701013BC9B2F5D19042EED110226F48FD
:1024E0000BF052FC6D480BF03BFC6CE709216D488A
:1024F0000BF096F923461022394668480BF044FC4D
:10250000012167480BF08CF9234610229DF8051035
:1025100062480BF039FC012161480BF081F910226F
:1025200023469DF806105D480BF02EFC01215C4807
:102530000BF076F921460DF1070001AA12F8014BC4
:102540006140C9B2082311F0800F4FEA410118BF62
:1025500081F00701013BC9B2F5D19042EED11022C2
:102560004E480BF011FC4D480BF0FAFBB7E6092181
:102570004C480BF055F923461022394647480BF0DA
:1025800003FC012146480BF04BF9234610229DF82D
:10259000051042480BF0F8FB012141480BF040F9CF
:1025A000102223469DF806103C480BF0EDFB01215C
:1025B0003B480BF035F921460DF1070001AA12F84E
:1025C000014B6140C9B2082311F0800F4FEA41016D
:1025D00018BF81F00701013BC9B2F5D19042EED19D
:1025E00010222E480BF0D0FB2C480BF0B9FBFEE577
:1025F00009212C480BF014F92346102239462748AC
:102600000BF0C2FB012126480BF00AF923461022E9
:102610009DF8051021480BF0B7FB012120480BF075
:10262000FFF8102223469DF806101C480BF0ACFB67
:1026300001211B480BF0F4F821460DF1070001AA17
:1026400012F8014B6140C9B2082311F0800F4FEA24
:10265000410118BF81F00701013BC9B2F5D1904299
:10266000EED110220D480BF08FFB0C480BF078FBDD
:1026700048E507210C480BF0D3F8C2E507210A48CA
:102680000BF0CEF848E5072107480BF0C9F8A4E69F
:10269000072105480BF0C4F82BE600BFD489FF1FC3
:1026A000205E0100004901000C49010038B500F529
:1026B0000E55183500F1B80402E09034AC420AD04F
:1026C0002046FEF701FF0028F7D020469034FEF7A1
:1026D000E1F8AC42F4D138BD2DE9F04F05460023B6
:1026E00045F8B83B00F50E5783B082462C461837A4
:1026F00002E09034A7420AD02046FEF7E5FE00280B
:10270000F7D020469034FEF7C5F8A742F4D142F244
:102710009C332C465AF80330072BD4BFC8203220F4
:1027200009F032FA012604E001363F2E04F190044C
:1027300077D02046FEF7C8FE0028F5D07F4800F08D
:10274000A1FD31467E4800F09DFD2046FEF776F95A
:102750002046FEF7A9FE0DF02FF902460B467948F8
:1027600000F090FD2046FEF7EDFD80462046FEF786
:1027700005FE834640460DF01FF9804658468946BF
:102780000DF01AF942464B46CDE900016E4800F0C3
:1027900079FD00212046FEF789FE01218046204672
:1027A000FEF784FE834640460DF006F98046584603
:1027B00089460DF001F942464B46CDE900016348D8
:1027C00000F060FD2046FEF76FFE0146DAF80000DB
:1027D0000DF094FCCAF800002046FEF727FEDAF858
:1027E00018100DF031FF002840F084802046FEF7DD
:1027F00033FEDAF81C100DF045FF002894D0204677
:10280000FEF714FE52490DF03DFF00288CD0204603
:10281000FEF722FE01363F2ECAF81C0004F1900498
:1028200087D1DAF804000DF01DFD0146DAF800004A
:102830000DF020FEDAF81410CAF8000004460DF07E
:1028400021FF08B1CAF81440DAF8101020460DF044
:10285000FBFE08B1CAF810400B2009F05FF942F204
:10286000A0331AF80330002853D1002B61D042F274
:10287000A03301220AF803200023CAF80C302C46AA
:1028800002E09034A74215D02046FEF71DFE002836
:10289000F7D02046FEF772FDDAF80C100DF0F2FECC
:1028A0000028EED02046FEF769FD9034A742CAF812
:1028B0000C00E9D1274BCAF8083002E09035BD4240
:1028C00015D02846FEF700FE0028F7D02846FEF770
:1028D00039FDDAF808100DF0B7FE0028EED02846D2
:1028E000FEF730FD9035BD42CAF80800E9D103B0CB
:1028F000BDE8F08F2046FEF799FD15490DF0C2FEA8
:1029000000283FF473AF2046FEF790FDCAF8180088
:102910006CE72BB942F2A03300220AF80320ABE7A0
:102920000D4800F0C7FC42F2A03300220AF8032051
:10293000A2E70A4800F0D4FC99E700BF0C5101005F
:10294000104A01004C4A0100604A01008C4A010013
:1029500000008CC20000A040E04A0100A84A01002B
:1029600042F2A833C05870478068704742F29C33E7
:10297000C0587047C0687047006870474160704732
:10298000F8B500F50E550F461646183500F1B80497
:1029900002E09034AC420FD02046FEF795FD0028AF
:1029A000F7D020463946FEF793FD20463146903455
:1029B000FEF796FDAC42EFD1F8BD00BF2DE9F04126
:1029C000274A284B426200F50E5507464FF0000893
:1029D0000362183500F1B804002602E09034A542E5
:1029E00010D02046FEF770FD0028F7D02046FEF7F5
:1029F00049FD1D490DF046FE80B99034A54206F10F
:102A00000106EED142F29C33F858801B0DF02AFCEF
:102A1000014640460DF02EFDBDE8F0812046FEF750
:102A200031FD014640460DF069FB80462046FEF729
:102A300013FD396A0DF026FE60B92046FEF7F6FC5C
:102A4000796A0DF001FE0028C8D02046FEF7EEFCA2
:102A50007862C3E72046FEF7FFFC3862EDE700BF6F
:102A600000C0794400C079C400008CC2006A70477D
:102A7000406A7047F8B500F50E5507460026183530
:102A800000F1B80402E09034AC420FD02046FEF7CB
:102A90001BFD0028F7D02046FEF788FC0146304693
:102AA0000DF02CFB9034AC420646EFD142F29C3341
:102AB000F8580DF0D7FB014630460DF0DBFCF8BDB1
:102AC0002DE9F04F06468FB076488B4600F082FB2A
:102AD000744800F07FFB734800F07CFB42F29C33AB
:102AE0003046F2580D92FEF745FD73680C93074689
:102AF00030680CF061FF804630468946FFF7BAFF28
:102B000082463046B468F568FFF758FF0CF054FF72
:102B1000CDE90A01214628460DF0EEFA62490DF092
:102B2000F5FB0CF049FFCDE9080128460CF044FF05
:102B3000CDE9060120460CF03FFFCDE904015046E7
:102B40000CF03AFF0D9A0C9BCDE90201CDE900890A
:102B5000114656483A4600F03DFB524800F03AFB19
:102B6000B83601274FF0000A05E001373F2F06F184
:102B7000900600F08E803046FEF7A6FC0028F4D0C8
:102B80003046FDF777FE3046FDF778FE3046FDF71C
:102B900079FE3046FDF77AFE082145480AF040FEEE
:102BA000394644480BF030F9092F75DD02214248BF
:102BB0000AF036FE3046FEF777FC0CF0FDFE5FFAB9
:102BC0008BF902460B46CDF800903A480BF024F9F9
:102BD00001213A480AF024FE5546002420E006214F
:102BE00037480AF01DFE294632480BF00DF9022144
:102BF00034480AF015FE21463046FEF79DFB0CF0E6
:102C0000DBFECDF8009002460B462A480BF004F993
:102C10000134012129480AF003FE062C09D045465B
:102C2000092D05F10108DADC012127480AF0F8FD39
:102C3000D5E7112125480AF0F3FD00213046FEF7C3
:102C400035FC0CF0B9FE022402460B4600941948EC
:102C50000BF0E2F812211E480AF0E2FD0121304695
:102C6000FEF724FC0CF0A8FE009402460B46114827
:102C70000BF0D2F8012117480AF0D2FD01370D48B8
:102C80000BF06EF83F2F0AF1060A06F190067FF46A
:102C900072AF0FB0BDE8F08F01210B480AF0C0FD04
:102CA00084E700BF0C51010000007A44884D010008
:102CB000284E0100D489FF1F845F0100344E0100BB
:102CC000384E0100D84E0100205E0100404E010048
:102CD000544E0100684E01002DE9F04F83B000F121
:102CE000B8060C9D884691469A4637464FF0010B30
:102CF00007E00BF1010BBBF13F0F07F1900700F06C
:102D000088803846FEF7E0FB0028F2D000230A2234
:102D10004146C2480BF038F8012D00F00E81012128
:102D2000BF480AF07DFD48460CF046FE00240246EE
:102D30000B460094B9480BF06FF80121B8480AF02F
:102D40006FFD5146B5480BF05FF80121B4480AF019
:102D500067FD5946B1480BF057F80121B0480AF019
:102D60005FFD002421463846FEF7E6FA0CF024FE0B
:102D70004FF0020E02460B46CDF800E0A7480BF0DC
:102D80004BF8012D4FF00101A54804BFA548294685
:102D900001340AF045FD082CE4D100213846FEF745
:102DA00085FB0CF009FE022402460B4600949B486A
:102DB0000BF032F8012D00F0E380012198480AF071
:102DC0002FFD01213846FEF771FB0CF0F5FD009454
:102DD00002460B4691480BF01FF8012190480AF07B
:102DE0001FFD02213846FEF761FB0CF0E5FD0224D1
:102DF00002460B46009489480BF00EF80BF1010BCC
:102E000086480AF0ADFFBBF13F0F07F190077FF452
:102E100078AF4FF0010B07E00BF1010BBBF13F0F57
:102E200006F1900600F086803046FEF74DFB002844
:102E3000F2D000230A2241467B480AF0A5FF012D6B
:102E400000F0B3800121764809F04EF948460CF0B5
:102E5000B3FD002402460B46009473480AF0DCFFE1
:102E600001216F4809F040F951466F480AF0CCFF44
:102E700001216B4809F038F959466B480AF0C4FF44
:102E80000121674809F030F9002421463046FEF759
:102E900053FA0CF091FD022702460B460097624858
:102EA0000AF0BAFF012D4FF001015D4804BF5D48F3
:102EB0002946013409F018F9082CE6D100213046E2
:102EC000FEF7F4FA0CF078FD022402460B4600945B
:102ED00055480AF0A1FF012D00F08A8001215048D9
:102EE00009F002F901213046FEF7E0FA0CF064FD2A
:102EF000009402460B464C480AF08EFF01214848D8
:102F000009F0F2F802213046FEF7D0FA0CF054FD39
:102F1000022402460B46009443480AF07DFF0BF161
:102F2000010B41480AF01CFFBBF13F0F06F1900670
:102F30007FF47AAF03B0BDE8F08F294639480AF034
:102F40006FFC48460CF038FD002402460B46009406
:102F500032480AF061FF294632480AF061FC5146C6
:102F60002E480AF051FF29462E480AF059FC5946CE
:102F70002A480AF049FF29462A480AF051FCF0E69F
:102F8000294628480AF04CFC29463846FEF78EFAB6
:102F90000CF012FD009402460B4620480AF03CFF5C
:102FA000294620480AF03CFC1BE729461D4809F049
:102FB0009BF848460CF000FD002402460B460094A6
:102FC00019480AF029FF2946164809F08DF851469C
:102FD00015480AF019FF2946124809F085F85946A4
:102FE00011480AF011FF29460E4809F07DF84BE719
:102FF00029460C4809F078F829463046FEF756FA7B
:103000000CF0DAFC009402460B4607480AF004FF75
:103010002946044809F068F874E700BFD489FF1F07
:103020006C4E0100205E0100A889FF1F01EBC10169
:1030300000EB011008B511462830FEF77DF9034971
:103040000DF064F90DF064FB80B208BD00007A4415
:1030500001EBC10100EB011008B511462830FEF765
:1030600025FA0DF055FB80B208BD00BF014B18706A
:10307000704700BFFC87FF1F024B1878B0FA80F042
:1030800040097047FC87FF1F0278002A00F09080FB
:1030900070B5034682B00D46252A2AD158785C1CAB
:1030A00008B325282FD0732831D0642824D069286C
:1030B00022D066284FD07A2859D0782835D0582881
:1030C0002FD062283ED0422838D06C2814D06328F4
:1030D00012D0742857D054285FD00AF025FC6278AB
:1030E000631C002AD8D1344802B0BDE870400AF011
:1030F00037BE18781C46F0E72B1D29682E481D4660
:103100000AF082FEEBE710460AF00EFCE7E72E68B5
:1031100030460EF095FA0146304604350AF080FB41
:10312000DDE7022125480AF07BFB2E1D2968224895
:103130000023102235460AF027FED0E7022120485E
:103140000AF06EFB2E1D29681B480023022235461B
:103150000AF01AFEC3E7073525F007050321D5E974
:1031600000231548009108350AF056FEB7E70735E9
:1031700025F007050021D5E900230F480091083507
:103180000AF04AFEABE7296801290EBF0D480E4838
:10319000012104350AF044FBA1E72B68012B07BF8E
:1031A00004210A480A48052104350AF039FB96E74C
:1031B00001480AF0D5BD00BFD489FF1F704E010041
:1031C000744E0100784E01007C4E0100804E0100DB
:1031D000884E01000FB400B583B004A951F8040B68
:1031E0000191FFF751FF03B05DF804EB04B07047A5
:1031F00070B51B4B1B4C1B6882B00D460193019BA5
:103200002360194604460023164617480A220AF08E
:10321000BBFD032115480AF003FB032C07D8DFE8A8
:1032200004F01A151002052111480AF0F9FA0221DA
:1032300010480AF0F5FA31462846FFF725FF02B09C
:1032400070BD07210C480AF0EBFAF0E704210B48A7
:103250000AF0E6FAEBE7052109480AF0E1FAE6E7A9
:10326000BCBCFF1F5494FF1FD489FF1FE449010019
:10327000A84E0100D84E0100A04E0100984E01005A
:10328000904E01000FB400B5094B187883B020B1FF
:1032900003B05DF804EB04B0704705AB1A4604991F
:1032A0000193FFF7A5FF03B05DF804EB04B070478E
:1032B000FC87FF1F0FB4094B00B51B78012B83B0AF
:1032C00004D903B05DF804EB04B0704705AB1A46AF
:1032D000049901930120FFF78BFFF2E7FC87FF1FA2
:1032E0000FB40B4B00B51B78032B83B004D903B08C
:1032F0005DF804EB04B0704705AB1A4604990193DE
:103300000320FFF775FF03B05DF804EB04B07047CE
:10331000FC87FF1F30B4074D074C084900232B7072
:10332000236003654365836580F85C300B6030BCC7
:10333000704700BF6094FF1F5C94FF1F5894FF1FED
:1033400070B5132008F0EAFBA8B1114E114B358877
:103350001C6808F0F7FBADB22C44201A33880E4AE3
:10336000C0EB00108000A0F634009BB2B0FBF3F37A
:103370009BB2138070BD074C08F0E4FB2368044A3D
:10338000C01A80B2108008F0DDFB206070BD00BF65
:1033900082BAFF1FE4BAFF1FF4BAFF1F0A4A0B49A3
:1033A000106ED36D03FB00F34FF47A7000FB03F053
:1033B000642310B50B600CF055FF0549054C0DF06A
:1033C00059F8206010BD00BF90B9FF1F1088FF1F83
:1033D000E4388E3ED4BAFF1F10B4019C521AA4EBFD
:1033E000030412D0401A002C04FB00F002EBD2714F
:1033F00011DB00EB610101FB02F0002891FBF2F10F
:103400000B4414DB184610BC704704EBD47003EB7C
:10341000600010BC7047A0EB610000FB02F10029C6
:1034200090FBF2F01844EEDB013010BC7047581EE0
:1034300010BC704710B5074C20460AF091FC064BB3
:10344000204619680AF0E0FC03210448BDE810405A
:103450000AF0E6B9D489FF1F0C95FF1FB04E01009A
:1034600070B5044608460D460EF0EAF82368024699
:10347000294620465B68BDE87040184738B50446C9
:1034800008460D460EF0DCF82368024629465B68C4
:1034900020469847054620460AF062FC284438BD7D
:1034A0002DE9F0415148524C524E534FFFF792FED6
:1034B000524B5349534A54485960142553491D707F
:1034C000DA60534D1C6100224FF4FA749E619F62D2
:1034D000504E514FD861D9624FF07C504F491D6317
:1034E0009A634F4D9C860C224E4CDE631F644E4EF9
:1034F000D8649627022019655D6501214B4D9A65B8
:103500005C6200223224C3F8C860A3F866706426A7
:103510004FF49677587058721D625D615D6483F850
:103520004820C3F8A8401E66A3F86A70A3F8647028
:103530003F4D19725A27D965A3F86840DA67C3F876
:103540008000C3F88820C3F89040C3F8B040C3F8A7
:10355000AC20C3F8BC00C3F8C06083F8CD204FF4A2
:103560007A7683F8CE20334C9F6744F62062FF20A2
:10357000C3F89460C3F89850C3F89C40C3F8A020E7
:103580004FF4167441F28832C3F8B40040F61C4878
:1035900040F2D6604FF00A0C41F2040E5527F02697
:1035A0000525C3F88410C3F8B810C3F86C80C3F8BD
:1035B00070C0C3F874E0C3F8DC70C3F8E060A3F82F
:1035C000C650A3F8D040A3F8D440A3F8D220A3F863
:1035D000D620C3F88C20A3F8C420A3F8A400A3F835
:1035E000A60083F8D810BDE8F08100BFB44E0100FA
:1035F0000000404033338340CDCCCC3D90B9FF1F19
:1036000020A1070066668640CDCC4C400000824277
:10361000000020C1000020420000A0409A9979409B
:103620000AD7233D333373409A99993ECDCC4C3E13
:103630000000114400F0C8452DE9F84F6C4C6D4D69
:103640006D48E66800232B70FFF794F90146304679
:103650000CF0FAFF08B102232B706748FFF784F9DA
:1036600021690CF0F1FF18B12B7843F004032B70A3
:103670006148FFF7FBF9E16A0DF004F818B12B7807
:1036800043F008032B705C48FFF7F2F9216B0CF054
:10369000DBFF18B12B7843F016032B70DFF86CA119
:1036A0005649DAF80000DFF868910CF0E3FE0DF0FF
:1036B00009F8B9F8003080EAE072A2EBE0729A42B1
:1036C00003DD2B7843F040032B70DFF84881494934
:1036D000B8F800304A4F9842C8BF01234FF00002AB
:1036E0006A70C8BF4B703B78052B7CD0454E336861
:1036F000012B73D0444D404800232B70FFF73AF95B
:10370000A16A8346E0680CF0F7FC014658460CF0CD
:10371000B9FF08B104232B703748FFF725F9A16AD8
:10372000834620690CF0EAFC014658460CF08CFFF9
:1037300018B12B7843F004032B702F48FFF796F94C
:10374000216C8346E06A0CF0D7FC014658460CF029
:1037500099FF18B12B7843F008032B702648FFF728
:1037600087F9216C8346206B0CF0C8FC0146584653
:103770000CF06AFF18B12B7843F016032B701F4929
:10378000DAF800000CF076FE0CF09CFFB9F800307F
:1037900080EAE072A2EBE0729A4203DD2B7843F0FC
:1037A00040032B70B8F8003017499842C8BF012376
:1037B0004FF000026A70C8BF4B703B78052B08D0F1
:1037C0003368012B03D16B7843F016036B70BDE8AF
:1037D000F88F6B7843F008036B70F1E76B7843F078
:1037E00016036B7086E76B7843F008036B707DE718
:1037F00090B9FF1F7CB9FF1F1C95FF1F0000C84236
:1038000084B9FF1FC4BAFF1FC0BAFF1F80B9FF1FD2
:10381000ECBAFF1F9C94FF1FF8B5524CD4F8BC3093
:10382000082B00F09A80504D5048E66800232B701A
:10383000FFF7A0F8014630460CF006FF08B104235C
:103840002B704A48FFF790F821690CF0FDFE18B183
:103850002B7843F010032B704448FFF707F9E16A17
:103860000CF010FF18B12B7843F040032B700023AD
:103870003E486B70FFF7FCF8216B3B4E0CF0E4FE0A
:1038800008B10123737000233848EB70FFF772F81A
:1038900005463648344EFFF767F8014628460CF0D7
:1038A0002BFC616C0CF0EEFE08B10123F370304D7F
:1038B0002E4800232B70FFF75DF8A16A0646E068EA
:1038C0000CF01AFC014630460CF0DCFE08B1042373
:1038D0002B702648FFF748F8A16A064620690CF0CD
:1038E0000DFC014630460CF0AFFE18B12B7843F0CA
:1038F00010032B701D48FFF7B9F8216C0646E06AEB
:103900000CF0FAFB014630460CF0BCFE18B12B78E7
:1039100043F040032B70002314486B70FFF7A8F8A6
:10392000216C134F0646206B0CF0E8FB0146304635
:103930000CF08AFE08B101237B700C48FFF798F861
:10394000216C0646206B0CF0D9FB014630460CF08A
:103950007BFE08B101236B70F8BDBDE8F840FFF7AE
:103960006BBE00BF90B9FF1F7CB9FF1F1C95FF1FE6
:10397000C0BAFF1F2DE9F041844C2368012B82B0AF
:1039800025D0022B54D0032B74D0EBB9804B814847
:10399000D3F8B020D3F8B4100368891A002903FBC8
:1039A00001F37D49C0F28880323381FB0301D817CF
:1039B000C0EB6111002B1144C0F29380062002B0CD
:1039C000BDE8F04107F024BF02B0BDE8F081734EBE
:1039D00033680A33B3F57A7F7EDC184633600CF027
:1039E00041FC6F490CF092FC8046694DD5F8B0005F
:1039F0000CF038FC0746D5F8B4000CF033FC39461F
:103A00000CF07AFB41460CF081FC66490CF032FD6B
:103A100039460CF073FB0CF055FE0146062007F00A
:103A2000F7FE614B1B68002B62D12368022BAAD1E1
:103A30005A4B574E00221A60D6F8B0000CF012FC18
:103A40000546D6F8B4000CF00DFC29460CF054FBEA
:103A500000210CF05BFC53490CF00CFD29460CF0E6
:103A60004DFB0CF02FFE0146062007F0D1FE236827
:103A7000032B8AD1494B464E4FF47A721A60D6F81E
:103A8000B0000CF0EFFB0546D6F8B4000CF0EAFBF2
:103A900029460CF031FB43490CF038FC41490CF04D
:103AA000E9FC29460CF02AFB0CF00CFE014606202E
:103AB00007F0AEFE236868E7323B81FB0310D9179D
:103AC000C1EB6011002B0A445DDB511C062002B0E3
:103AD000BDE8F04107F09CBE00234FF000083360C2
:103AE00083E70139062002B0BDE8F04107F090BE3F
:103AF00002212E4809F094FE2D480AF031F90621E2
:103B00002C4809F08DFE30680CF0ACFB24490CF019
:103B1000FDFB0BF051FF022702460B46009724489D
:103B20000AF07AF90D21244809F07AFED5F8B000A0
:103B30000CF098FB804630680CF094FB18490CF0B0
:103B4000E5FB0646D5F8B4000CF08CFB41460CF0C2
:103B5000D3FA014630460CF0D9FB12490CF08AFC2E
:103B600041460CF0CBFA0BF027FF009702460B46BC
:103B70000F480AF051F939460C4809F051FE0C483B
:103B80000AF0EEF851E7114618E700BFA094FF1FB6
:103B900090B9FF1F1088FF1F1F85EB5178BAFF1FD8
:103BA000CDCCCC3D0000C8420088FF1F845F0100DF
:103BB000D489FF1FD44E0100DC4E010030B51548FA
:103BC000154C83B00AF0CCF812480AF0C9F8134B30
:103BD000104819680AF018F90E480AF0C1F80D21CA
:103BE0000F4809F01DFED4F8AC30012B1CD00D4D50
:103BF0000848297800230A220AF0C6F82B78052BFA
:103C000074D8DFE813F074017901CB01D001D5013C
:103C1000DA0100BFD489FF1F90B9FF1F7494FF1F02
:103C2000EC4E010084B9FF1F0921B64809F0F8FDE8
:103C3000B548FEF799FE21690CF006FD18B10F2179
:103C4000B24809F0EDFDB048FEF794FEE1680CF0D3
:103C500019FD18B10E21AE4809F0E2FDAA48FEF7A1
:103C600089FE0546A848FEF77FFE014628460CF06F
:103C700043FA616C0CF006FD18B11121A54809F05A
:103C8000CFFDA148FEF79AFEE16A0CF0FBFC18B1EB
:103C90000C21A14809F0C4FD9B48FEF78FFE216B63
:103CA0000CF0D2FC18B10D219C4809F0B9FD9C4BD9
:103CB00095481B68012B00F09881FEF755FE21699D
:103CC000984D0CF0DFFC002800F00F818E48FEF7C5
:103CD00051FEE968944D0CF0B7FC38B12B78052BF8
:103CE00000F098810821914809F09AFD022190483E
:103CF00009F096FD122007F011FF012800F07081F5
:103D0000112007F00BFF012800F05C81894B1B6834
:103D1000012B00F0608102218548874C09F080FD6D
:103D2000864B874819680AF06FF885480AF018F83A
:103D30000421844809F074FD0B2007F0EFFE0023F6
:103D400001460A227E480AF01FF80C2007F0E6FE22
:103D5000002301460A227A480AF016F8142007F0D8
:103D6000DDFE002301460A2275480AF00DF81520F1
:103D700007F0D4FE0A220023014671480AF004F835
:103D80000621714809F04CFD2368DB074FF0010163
:103D90004CBF6E486E4809F043FD236898074FF00A
:103DA00001014CBF69486A4809F03AFD23685A0787
:103DB0004FF001014CBF6548654809F031FD2368AB
:103DC0001B074CBF61486248012109F029FD04210D
:103DD000604809F025FD112007F0A0FE00230146F0
:103DE0000A22574809F0D0FF102007F097FE002361
:103DF00001460A22524809F0C7FF122007F08EFE42
:103E0000002301460A224E4809F0BEFF132007F0A6
:103E100085FE0A2200230146494809F0B5FF182112
:103E20004D4809F0FDFC4D4B18880CF01BFA4C492D
:103E30000CF06CFA0BF0C0FD002402460B46009417
:103E40003F4809F0E9FF1D21464809F0E9FC464BCF
:103E500018880CF007FA42490CF058FA0BF0ACFD48
:103E600000940B4602463648404C09F0D5FF02212B
:103E70003F4809F0D5FC2B78032B02D023889BB256
:103E800093B117213B4809F0CBFC21882C4889B21B
:103E900009F0BAFF0221364809F0C2FC2B78032B47
:103EA00002D1354B1B780BB903B030BD0B21334821
:103EB00009F0B6FC324B2248198889B209F0A4FFF8
:103EC0001121304809F0ACFC2F4B1D48198809F02E
:103ED0009BFF2E4B1B78002B00F097802C481D2158
:103EE00003B0BDE8304009F09BBC0F4DFEE6062153
:103EF000284809F095FCF9E60721274809F090FCCD
:103F0000F4E600BFFC4E01001C95FF1F084F0100A6
:103F1000184F0100284F01003C4F01004C4F010099
:103F20006494FF1F90B9FF1F84B9FF1F804F0100E9
:103F3000845F0100C4BAFF1FF8BAFF1F7894FF1F07
:103F4000D489FF1FF44F0100FC4F01000450010011
:103F5000085001000C500100145001009C94FF1FF8
:103F6000CDCCCC3D30500100ECBAFF1FF4BAFF1F9E
:103F700050500100B0500100E0B8FF1F5450010044
:103F800082BAFF1F60500100E0BAFF1F0895FF1FB3
:103F9000905001008C4F0100944F010007212048F0
:103FA00009F03EFCA2E608211E4809F039FC9DE616
:103FB0000B211D4809F034FC98E607211B4809F045
:103FC0002FFC93E60A211A4809F02AFC194B1B68BA
:103FD000012B7FF4A0AE1121174809F021FC9AE6CD
:103FE0000E21164809F01CFC8AE6FEF7BDFC616A4A
:103FF0000CF048FB60B116211148124D09F010FC7D
:104000000A21114809F00CFC70E619210F4867E7F6
:104010000C4D67E60A210C4809F002FC66E600BF79
:10402000A84F0100B04F01009C4F0100BC4F0100A0
:10403000D44F0100C4BAFF1FE04F0100C44F01007C
:104040005C4F010084B9FF1F744F010074500100E0
:104050002DE9F04FAB4CD4F88060012E8DB000F00C
:104060007981032E00F0CC80DFF8DC82A64FA74ECA
:10407000E36FA748012B09BF3168316801F10041A6
:10408000316006F04FFF3B68002B40F09F80A04856
:10409000DFF8B49206F01CFF3B68C8F80000054644
:1040A000002B44D1D4F88030964A012B53D0994943
:1040B00028460CF0E7FAC0B9974928460CF0C4FA34
:1040C00098B9964A964B12680B920B9A1A60D4F8DC
:1040D000B8000CF0C7F829460CF018F90023C8F80E
:1040E000000033600DB0BDE8F08FDFF830A28C4FD8
:1040F000DAF800300A930A983B68DFF85092C01A49
:104100000CF0ACF829460CF001F986490CF0B2F934
:1041100084490CF0AFF9D9F800100BF0EFFFDAF892
:1041200000300993099BC9F800003B60CFE70BF012
:1041300043FC022502460B4600957B4809F06CFEC5
:1041400004217A4809F06CFBD4F88030D9F800508B
:104150006C4A012BABD1764B1B68012B00F0DA8146
:10416000022BB4D1D2F8A07038460CF07BF8294667
:104170000CF06AFA40B978420CF074F829460CF059
:1041800081FA002800F0F981DFF890A1644FDAF895
:104190000030079307983B68DFF8B091C01A0CF025
:1041A0005DF829460CF0B2F85E490CF063F95D4900
:1041B0000CF060F9D9F800100BF0A0FFDAF800302D
:1041C0000693069BC9F800003B6080E7504806F064
:1041D0007FFE0BF0F1FB022502460B46009552488C
:1041E00009F01AFE0321534809F01AFBD4F8A01075
:1041F0004D4809F009FE03214E4809F011FB46E73E
:104200004D4D4B4F2B68DFF84081D3F884000F21D0
:1042100001233B6006F0F4F83B683B4F012B3B6801
:1042200000F0BF80002B40F03D812B68DFF820912B
:10423000D3F88400436B19698EB2C9F8006005F0A9
:1042400061FEB4F8A62040F6E44303FB06F1B1FB9F
:10425000F0F0801A00B20CF005F838492B4E824677
:10426000D4F898000CF052F8014650460CF002F9D0
:10427000D9F800303060632BDFF8D4A000F306815A
:10428000002333603B68002B3FF4F2AE02212C4840
:1042900009F0C6FA2B68D9F80050D3F8840040F62C
:1042A000E44303FB05F505F02DFEB5FBF0F00BF044
:1042B000D5FF0546B4F8A6000BF0D4FF014628460A
:1042C0000BF01AFF0BF078FB022502460B46009517
:1042D000154809F0A1FD2946194809F0A1FA3068EE
:1042E0000BF06AFB009502460B460F4809F094FD5F
:1042F0002946144809F094FA2946114809F090FA21
:10430000B6E600BF90B9FF1F74B9FF1FE8BAFF1FE0
:1043100098BAFF1F0000FA430000FAC3BCBCFF1F9D
:1043200078B9FF1F00007A44D489FF1F08510100AB
:104330002888FF1FE849010008BBFF1F9175DD3683
:10434000845F01000451010080B9FF1FD4BAFF1F30
:1043500010BBFF1FDFF80883D4F8A070D8F8005016
:1043600038460BF07FFF29460CF08CF948B17842B3
:104370000BF078FF014628460CF084F9002840F045
:104380000381A54DA54F2A680223D2F884003B6023
:104390000E2106F035F83B68A14F012B3B687FF4F6
:1043A00041AF002B40F0FA802B68DFF8B892D3F8C9
:1043B0008400436B19691FFA81FBC9F800B005F04E
:1043C000A1FDB4F8A430974E40F6E44A0AFB0BFB7B
:1043D000BBFBF0F0C01A00B20BF044FF92498346D9
:1043E000D4F89C000BF092FF014658460CF042F8BE
:1043F0002A68D9F800303060D2F884000AFB03FA4A
:1044000005F080FDB4F8A430BAFBF0F00FFA80FAA2
:10441000C3EB0A03002BB4F8C620B8BF5B4293423B
:10442000BCBF002333603B68002B3FF421AE022168
:104430007E4809F0F5F92B68D9F80050D3F88400CC
:1044400040F6E44303FB05F505F05CFDB4F8A41069
:10445000B5FBF0F000B2411A754809F0D5FC022115
:10446000724809F0DDF930680BF0A6FA0225024621
:104470000B4600956E4809F0CFFC03216D4809F00A
:10448000CFF92946694809F0CBF9F1E52B68D3F853
:10449000840005F037FDDAF8003064389842FFF404
:1044A000EFAEEFE66248DFF8BC91DFF86CA109F0EF
:1044B00057FC0C21604809F0B3F90C215F4809F062
:1044C000AFF92A683B68D2F88400426B11698EB25A
:1044D000C9F80060002B3FF4B2AE05F013FD40F6C2
:1044E000E44100230A2201FB06F1B1FBF0F1504840
:1044F00009F04AFC02214D4809F092F9B4F8A610DF
:104500004B4809F081FCDAF80030D9F80060D3F8A4
:10451000840094E64A4928460CF0B4F858B9494951
:1045200028460CF091F830B9474A484B126805927A
:10453000059A1A60CBE5DFF810A1444FDAF8003095
:10454000049304983B68DFF82091C01A0BF086FEB4
:1045500029460BF0DBFE3E490BF08CFF3C490BF08B
:1045600089FFD9F800100BF0C9FDDAF80030039389
:10457000039BC9F800003B60A9E5334A334B12683E
:104580000892089A1A60A2E5234D244F2B683E60DA
:10459000D3F884000F2105F033FF3DE62448DFF80F
:1045A000C4901D4E09F0DCFBD4F88030012B4FF095
:1045B0000B010CBF2748284809F032F90C211F488D
:1045C00009F02EF92A683B68D2F88400426B116921
:1045D0001FFA81FBC9F800B0002B3FF4F0AE05F0E4
:1045E00091FC40F6E44100230A2201FB0BF1B1FBF0
:1045F000F0F10F4809F0C8FB0121184809F010F943
:10460000B4F8A4100A4809F0FFFB3368D9F800B0E9
:10461000D3F88400D3E600BF08BBFF1F2888FF1F24
:1046200074B9FF1FE8BAFF1F9175DD36845F010082
:10463000D489FF1FF0500100F4500100E050010048
:104640000000FA430000FAC3BCBCFF1F78B9FF1F8B
:1046500000007A44C8500100D4500100205E0100DF
:1046600080B9FF1F10BBFF1FD4BAFF1F2DE9F04F09
:104670009D4C236887B01BB99C4B1B68002B7BD0DB
:104680009B4EDFF878829B4FDFF8BC92D6F88830DB
:10469000974D012B00F09A802C6ED7F800A0ED6D9D
:1046A00004FB05F44FF47A7000FB04F00BF0DAFD24
:1046B0009149924D044650460BF028FE21460BF0DE
:1046C000D9FE8F490BF022FE0BF0FCFF6328C8F8DF
:1046D00000004CDD204688490BF0CCFE6423386096
:1046E0002B60D9F80030002B3ED0D6F88030804CBB
:1046F000012B00F09180032B00F0E980022B00F0E9
:10470000ED8002217F4809F08BF87F4B18680BF091
:1047100053F9022402460B4600947C4809F07CFBC6
:1047200021467B4809F07CF82146764809F078F864
:10473000D8F80010754809F067FB0621754809F0A4
:104740006FF838686C490BF0E1FD0BF035F9009417
:1047500002460B466D4809F05FFB03216E4809F0E5
:104760005FF86A4809F0FCFA07B0BDE8F08F00284E
:10477000BCBF00232B60B4E7684D2B680393039BF9
:10478000B3F57A6F07D9664E336823B96548FDF7EC
:1047900091FB012333602B680493049A544E41F239
:1047A00094139A4200F28C802B680593059A41F28B
:1047B00088339A423DD8D6F88830DFF840814D4F93
:1047C000DFF884914A4D012B7FF466AF5548FEF720
:1047D000CBF85549D5F874A0EC6ED5F870B00BF055
:1047E00095FD0BF095FFAB6F0093524621465B465B
:1047F00080B2FEF7F1FD2C6EED6D04FB00F005FBC1
:1048000000F000EB800040000BF02CFD3A490BF06B
:1048100031FE8246386043E7444B1B68012B4FF062
:104820000A010CBF4248434808F0FAFFD4F8803030
:1048300061E706214048DFF8C48008F0F1FF334803
:1048400009F08EFA3748FEF78FF83749D6F870909E
:10485000776FF56E0BF05AFD0BF05AFFB36F0093B4
:104860003A464B46294680B2FEF7B6FD326EF36DEE
:10487000C8F8000002FB00F003FB00F000EB800032
:1048800040000BF0EFFCDFF8C0901B49194F0BF014
:10489000F1FDD9F80030386001222260002B3FF48E
:1048A000F5AE0221174808F0BBFF184809F058FA86
:1048B0005921224808F0B4FF144809F051FAE5E6FE
:1048C0001848F26C96F84810FEF75AF86CE7102179
:1048D0001B4808F0A5FFD6F880300FE707211948DC
:1048E00008F09EFF0DE700BF1895FF1F04BBFF1FD8
:1048F00090B9FF1FD4BAFF1FE4388E3E1088FF1F07
:104900000000C842845F010080B9FF1FD489FF1FE7
:1049100004510100A8510100B0510100BCBCFF1FAF
:10492000F0B8FF1F1C95FF1F00007A442888FF1F66
:104930007451010080510100105101001851010013
:104940008C510100A05101000088FF1F30B51120DB
:1049500083B007F0E3F8012818D0122007F0DEF842
:10496000012813D000210B2007F0D2F800210C20E1
:1049700007F0CEF80021152007F0CAF82649274B8A
:104980000120002208701A6003B030BD01211520FB
:1049900007F0BEF8224A234C234B1268D4F88C103F
:1049A00001921B68019A1D4D0B4493424FF0020186
:1049B000296005D901210C2007F0AAF803B030BD09
:1049C000D4F894000BF04EFC184B19680BF03CFE29
:1049D0000028EFD101210B2007F09AF894F8CC3091
:1049E0000324012B2C600DD0122007F097F801282A
:1049F00008BF094B4FF0110008BF1C7007F08EF87C
:104A0000012802D1044B02221A7000210C2007F069
:104A10007FF803B030BD00BF84B9FF1F1495FF1F9E
:104A2000BCBCFF1F90B9FF1FDCB8FF1F80B9FF1F80
:104A3000F0B56D4E6D4D34682B689C4287B03AD00E
:104A400014F0010156D014F002014AD014F0040110
:104A50003ED0E3070FD52B68DF070CD4644F3A68CC
:104A6000002A00F09E80634B1B680193019B9342D8
:104A700000F289803468A0070DD52B6899070AD405
:104A80005D4F3A68002A3ED05A4B1B680393039B44
:104A900093425AD8346862070DD52B685B070BD454
:104AA000564F3A68002A3FD0524B1B680593059B2E
:104AB000934258D834680CB107B0F0BD2146162097
:104AC00006F0A6FE2146172006F0A2FE07B0F0BDB4
:104AD000052006F09DFE2B68346803F0FB032B6075
:104AE000B7E7172006F094FE2B68346803F0FD0347
:104AF0002B60ABE7162006F08BFE2B68346803F0C2
:104B0000FE032B609FE73E4B1B68002B56D1FF2115
:104B1000172006F07DFE374B3A4A19680291029938
:104B200012680A443A60B0E7354B1B68002B50D13D
:104B3000FF21052006F06CFE2E4B324A19680491C5
:104B4000049912680A443A60AFE72F4B1720D3F854
:104B5000901006F05DFE2B68346843F002030022DB
:104B60002B603A6097E7284B0520D3F8901006F0A9
:104B70004FFE2B68346843F0040300222B603A6038
:104B8000002C99D19AE7204B1620D3F8901006F00C
:104B90003FFE2B68346843F0010300222B603A602B
:104BA00069E7FF21162006F033FE124B154A1968FB
:104BB0000091009912680A443A6055E7134809F0D9
:104BC000CFF80C21124808F02BFE104809F0C8F865
:104BD0009DE70E4809F0C4F80C210E4808F020FEAD
:104BE0000A4809F0BDF8A3E71495FF1FF8BAFF1FA4
:104BF0007CBAFF1FBCBCFF1F88BAFF1F8CBAFF1F07
:104C00000088FF1F1888FF1F90B9FF1FD489FF1F5E
:104C1000B4510100C45101002DE9F047534EDFF8B3
:104C20007081DFF870913068514D00220F2105F03E
:104C3000E3F80023012222214E48C8F80030C9F8C9
:104C4000002008F0EDFDD8F80030132B20DC40F6F2
:104C5000E4473368B5F8A4A0D3F88400436B1C691B
:104C600005F050F9A4B2012107FB04F4B4FBF0F401
:104C700041485444A5F8A44008F0D2FD642006F051
:104C800083FFD8F800300133132BC8F80030E0DD83
:104C9000B5F8A430394A3A48A2FB03129B1A02EB3A
:104CA0005303C3F30F131946A5F8A43009F0ACF869
:104CB0001D21344808F0B4FD0221334808F0B0FD4E
:104CC0002F4809F04DF832680023D2F88400C8F864
:104CD00000300E2105F094FB022322212548C9F85B
:104CE000003008F09DFDD8F80030132B20DC40F692
:104CF000E4473368B5F8A690D3F88400436B1C6989
:104D000005F000F9A4B2012107FB04F4B4FBF0F4B0
:104D100019484C44A5F8A64008F082FD642006F02E
:104D200033FFD8F800300133132BC8F80030E0DD32
:104D3000B5F8A630114A1248A2FB03129B1A02EBE7
:104D40005303C3F30F131946A5F8A63009F05CF816
:104D50001D210E4808F064FD02210B4808F060FD9B
:104D60000748BDE8F04708F0FBBF00BF08BBFF1FC6
:104D700090B9FF1FD45101001852010087611886B5
:104D8000D489FF1FF8510100845F01001C5201000B
:104D90008094FF1F2888FF1FC74B2DE9F0411B6837
:104DA000C64CC74E40F2513108222160E271B06D0D
:104DB000002B40F0C6810BF055FAB16905460BF0A7
:104DC000A5FAC049BE4F0BF0A1FA0BF0A1FC80B2CE
:104DD00003126372BC4ABD4B12881B88F1692072B2
:104DE000A37228461B121512E372227365730BF02F
:104DF0008DFAB449B14D0BF089FA0BF089FC83B2FE
:104E00001A122946B248A373E27305F0C9FEB14BEA
:104E1000B14A1B681288A272D8B200EB80012072DE
:104E200003EB830040F3D71049001B12607340F27C
:104E300055301212217363724FF00808002320606E
:104E40002946A348E272A373E37384F8078005F050
:104E5000A7FED6F8BC3084F8078040F25632072B04
:104E600022609E4800F0728197F8CE30012B00F04E
:104E70006D81FDF781FD9A490BF048FA0BF048FC73
:104E800028729648FDF778FD95490BF03FFA0BF034
:104E90003FFCC0F307206872924B914918680BF0F1
:104EA000E9FA0BF00FFC021203468C48E272A3727F
:104EB000FDF784FD83490BF029FA0BF003FC207306
:104EC0008648FDF77BFD7F490BF020FA0BF0FAFBDB
:104ED000002540F3072379497D486373A573E57383
:104EE00005F05EFE022006F04FFE7F4A7F4B5178B0
:104EF000907817786172A0725978987892F803E0E8
:104F000027724FF008081F78DA78617340F25A333D
:104F1000A0736A496E4884F80BE02773E27323603C
:104F200084F8078005F03CFE714B64491A78587884
:104F3000227260729A78D878A272E0721A7998799F
:104F40005F792273A073DA796148E27340F25E33CD
:104F50002360677384F8078005F022FE022006F0C4
:104F600013FE644B55491A785878227260729A7809
:104F7000D878A272E0721A7998795F792273A07357
:104F8000DA795348E2734FF45C732360677384F8F3
:104F9000078005F005FE022006F0F6FD40F27333AF
:104FA0004E48236084F80780FDF7DEFC52490BF081
:104FB000ADF90BF0ADFB20724848FDF7D5FC4E492A
:104FC0000BF0A4F90BF0A4FBC0F307234348637272
:104FD000FDF7D0FC48490BF099F90BF099FBA07252
:104FE0003E48FDF7C7FC44490BF090F90BF090FBED
:104FF000C0F307233948E372FDF73AFD3F490BF050
:105000007DF80BF085FB20733448FDF731FD3B49FB
:105010000BF074F80BF07CFBC0F307232F4863738D
:10502000FDF724FD35490BF069F80BF071FBA07317
:105030002A48FDF71BFD31490BF060F80BF068FBC7
:105040001E49C0F307232248E37305F0A9FD02209F
:1050500006F09AFDF16D336E294A84F8078011FB42
:1050600003F312682372C3F307210B2040F2793354
:10507000A2726172236006F051FD07460C2006F013
:105080004DFD0646142006F049FD800040EA460624
:10509000152006F043FD3E431A4B08491B78237345
:1050A00076B246EAC0060A486573E672A573E573F0
:1050B00005F076FD022027E06494FF1F8494FF1F13
:1050C00090B9FF1F00002041ECBAFF1F9C94FF1F06
:1050D00014BBFF1F1088FF1F1688FF1F1C95FF1FA2
:1050E0000000C84280B9FF1F7CB9FF1FC0BAFF1F74
:1050F0003488FF1F3C88FF1F00007A4433938843A5
:10510000F8BAFF1F84B9FF1F06F03EFD40F272336C
:105110001848236084F80780FDF728FC20721548A2
:10512000FDF724FC40FA08F3A5726372E57225735B
:105130006573A573E57310491048BDE8F04105F0AB
:105140002FBD0BF08FF8716A054638E6FDF714FCA9
:105150000B490BF0DBF80BF0DBFA20720548FDF78A
:105160000BFC07490BF0D2F80BF0D2FAC0F3072082
:10517000607291E61C95FF1F8494FF1F14BBFF1FF4
:10518000000020412DE9F8432421D048D04CD14FD4
:1051900008F046FBD04808F0E3FDD04BB86D1B6823
:1051A00040F2513108222160E271002B40F0FA8177
:1051B0000BF058F8B96905460BF0A8F8C849C54E78
:1051C0000BF0A4F80BF0A4FA80B203126372C54A84
:1051D000C54B12881B88F9692072A37228461B12DE
:1051E0001512E372227365730BF090F8BC49B84D49
:1051F0000BF08CF80BF08CFA83B21A122946BB48DC
:10520000A373E27305F0CCFCB94BBA4A1B68128851
:10521000A272D8B200EB8001207203EB830040F34E
:10522000D71049001B12607340F2553012122173DF
:1052300063724FF00808002320602946AB48E272F1
:10524000A373E37384F8078005F0AAFCD7F8BC3099
:1052500084F8078040F25632072B2260A64800F0FF
:10526000A68196F8CE30012B00F0A181FDF784FBDA
:10527000A2490BF04BF80BF04BFA28729E48FDF751
:105280007BFB9E490BF042F80BF042FAC0F307207B
:1052900068729B4B99491868DFF87C92DFF87C8232
:1052A0000BF0E8F80BF00EFA021203469248E27295
:1052B000A372FDF783FB8A490BF028F80BF002FA82
:1052C00020738D48FDF77AFB85490BF01FF80BF032
:1052D000F9F9002540F307237D4984486373A573DA
:1052E000E57305F05DFC022006F04EFC99F8001015
:1052F00099F8012099F80230217299F8031062722E
:10530000A37298F8002098F80130E17298F8021022
:105310002273082698F803206373A17340F25A336E
:105320006B497248E2732360E67105F039FC022094
:1053300006F02AFC99F8003099F8010098F800E08E
:1053400098F801202372607240F25933604967482F
:1053500084F80AE0E2722360E67125736573A57331
:10536000E57305F01DFC674B59491A78987893F856
:1053700001E02272A072DA78587993F804C084F8B8
:1053800009E0E27293F806E0DA79607340F25E3386
:10539000564884F80CC084F80EE0E2732360E6718E
:1053A00005F0FEFB022006F0EFFB574B48491A7848
:1053B000987893F801E02272A072DA78587993F81D
:1053C00004C084F809E0E27293F806E0DA796073C9
:1053D0004FF45C73454884F80CC084F80EE0E27327
:1053E0002360E67105F0DCFB022006F0CDFB40F205
:1053F000733341482360E671FDF7B6FA43490AF07A
:1054000085FF0BF085F920723B48FDF7ADFA3F4967
:105410000AF07CFF0BF07CF9C0F307233648637277
:10542000FDF7A8FA39490AF071FF0BF071F9A07283
:105430003148FDF79FFA35490AF068FF0BF068F92B
:10544000C0F307232C48E372FDF712FB30490AF042
:1054500055FE0BF05DF920732748FDF709FB2C4939
:105460000AF04CFE0BF054F9C0F307232248637393
:10547000FDF7FCFA26490AF041FE0BF049F9A0734A
:105480001D48FDF7F3FA22490AF038FE0BF040F907
:105490000F49C0F307231548E37305F081FB022091
:1054A00006F072FBF96D3B6E1A4AE67111FB03F3CD
:1054B00012682372C3F307210B2040F27933A272E2
:1054C0006172236006F02AFB2AE000BF3C52010013
:1054D0008494FF1F90B9FF1FD489FF1F6494FF1F9E
:1054E00000002041ECBAFF1F9C94FF1F14BBFF1F5C
:1054F0001088FF1F1688FF1F1C95FF1F0000C84261
:1055000080B9FF1F3488FF1F3C88FF1F00007A44CA
:1055100033938843F8BAFF1F7CB9FF1FC0BAFF1F3F
:1055200080460C2006F0FAFA0746142006F0F6FA38
:10553000800040EA4707152006F0F0FA47EA08071E
:10554000254B26491B7823737FB247EAC0072448BE
:105550006573E772A573E57305F022FB022006F080
:1055600013FB40F272331F482360E671FDF7FEF92A
:1055700020721C48FDF7FAF91849A57240FA06F3A3
:1055800017486372E57225736573A573E57305F0BB
:1055900007FB2321144808F043F91448BDE8F843F9
:1055A00008F0DEBB0AF05EFE796A054604E6FDF708
:1055B000E3F90F490AF0AAFE0BF0AAF82072094895
:1055C000FDF7DAF90A490AF0A1FE0BF0A1F8C0F3E1
:1055D000072060725DE600BF84B9FF1F8494FF1F3F
:1055E00014BBFF1F1C95FF1F64520100D489FF1FCD
:1055F000000020412DE9F04F8F4E904F83B008F00E
:10560000A3F834683860042C054600F01783092C91
:105610005ED0022C4CD1A5F13103422B53D8DFE8E8
:1056200013F0560564057405D60081059205A105A1
:10563000AB0552005200520052005200520052007C
:1056400052005200520052005200520052005200CA
:1056500052005200520052005200520052005200BA
:1056600052005200520052005200520052005200AA
:10567000520052005200520052005200520052009A
:105680005200520052004300520052005200520099
:10569000520052005200520052005200520052007A
:1056A0005200640052004B05FFF7B6FA34683D68BB
:1056B000082C40F09D80322D00F0C983712D14D04C
:1056C000312D00F0DB83732D13D003B0BDE8F08FD4
:1056D0005B4C94F8CD30012B02D9002384F8CD30F7
:1056E000312D00F04C83712DEDD1002273233260F7
:1056F0003B603368002BE8D1524D534808F030FB33
:105700000421524808F08CF84F4808F029FB10217A
:105710004F4808F085F84C4808F022FB13214D480B
:1057200008F07EF84C4B4848196808F06DFB464875
:1057300008F016FB1421494808F072F8424808F0B6
:105740000FFB1E21464808F06BF83F4808F008FBA5
:105750001521444808F064F83B4808F001FB1E217D
:10576000414808F05DF8384808F0FAFA20213F482F
:1057700008F056F8344808F0F3FA19213C4808F0CC
:105780004FF8314808F0ECFA12213A4808F048F88E
:105790002D4808F0E5FA1921374808F041F82A4861
:1057A00008F0DEFA0F21354808F03AF8264808F0EC
:1057B000D7FA0D21324808F033F8234808F0D0FA20
:1057C000002201232A60336003B0BDE8F08F01237B
:1057D000336007F0F5FF002807DD1B48184C08F080
:1057E00055FC0AF03FFDC4F89C00632534683D6019
:1057F000072C4BD1332D01F0A28300F3AB82312D66
:1058000001F08583322D7FF45EAF07F0D9FF0028C9
:105810003ADD0D480A4C08F039FC0AF023FD19491D
:105820000AF074FD61220123606415463A6033601A
:105830001C46642AB1E200BF0CBBFF1FC8B8FF1FA3
:1058400090B9FF1F0088FF1FD489FF1FC4570100B4
:10585000CC570100E05701002488FF1FF4570100D6
:105860000C5801002C5801004458010064580100F4
:1058700088580100A4580100B8580100D45801000C
:10588000E45801006F12833A34683D68062C40F0FA
:105890008D80A5F13103402B3FF615AF01A252F8E0
:1058A00023F000BFB1660000D1640000FF64000077
:1058B000A96500001F660000F76500002B67000067
:1058C000E166000001670000C7560000C7560000EF
:1058D000C7560000C7560000C7560000C756000054
:1058E000C7560000C7560000C7560000C756000044
:1058F000C7560000C7560000C7560000C756000034
:10590000C7560000C7560000C7560000C756000023
:10591000C7560000C7560000C7560000C756000013
:10592000C7560000C7560000C7560000C756000003
:10593000C7560000C7560000C7560000C7560000F3
:10594000C7560000C7560000C7560000C7560000E3
:10595000C7560000C7560000C7560000C7560000D3
:10596000C7560000336600006166000089660000CB
:10597000D7650000C7560000C7560000C756000094
:10598000C7560000C7560000C7560000C7560000A3
:10599000C7560000C7560000C7560000C756000093
:1059A000C7560000EB56000034683D68052C40F0F7
:1059B0008D80A5F13103402B3FF685AE01A252F850
:1059C00023F000BFD35E00000560000025600000EA
:1059D000456000006F6000008B600000A560000063
:1059E000C7560000C7560000C7560000C756000043
:1059F000C7560000C7560000C7560000C756000033
:105A0000C7560000C7560000C7560000C756000022
:105A1000C7560000C7560000C7560000C756000012
:105A2000C7560000C7560000C7560000C756000002
:105A3000C7560000C7560000C7560000C7560000F2
:105A4000C7560000C7560000C7560000C7560000E2
:105A5000C7560000C7560000C7560000C7560000D2
:105A6000C7560000C7560000C7560000C7560000C2
:105A7000C7560000C7560000C7560000C7560000B2
:105A8000C7560000C7560000C7560000C7560000A2
:105A9000C7560000C7560000C7560000C756000092
:105AA000C7560000C7560000C7560000C756000082
:105AB000C7560000C7560000C7560000C756000072
:105AC000C7560000C55E000034683D68032C40F0F6
:105AD000A480A5F13003422B3FF6F5AD01A252F8A8
